{
  "_format": "hh-sol-artifact-1",
  "contractName": "DelayedExecution",
  "sourceName": "contracts/execution/DelayedExecution.sol",
  "abi": [
    {
      "inputs": [
        {
          "internalType": "address",
          "name": "_owner",
          "type": "address"
        },
        {
          "internalType": "uint256",
          "name": "_minExecCooldown",
          "type": "uint256"
        }
      ],
      "stateMutability": "nonpayable",
      "type": "constructor"
    },
    {
      "inputs": [
        {
          "internalType": "address",
          "name": "smartAccount",
          "type": "address"
        }
      ],
      "name": "AlreadyInitialized",
      "type": "error"
    },
    {
      "inputs": [
        {
          "internalType": "bytes32",
          "name": "executionHash",
          "type": "bytes32"
        }
      ],
      "name": "ExecutionHashNotFound",
      "type": "error"
    },
    {
      "inputs": [],
      "name": "ExecutionNotAuthorized",
      "type": "error"
    },
    {
      "inputs": [],
      "name": "HookInvalidSelector",
      "type": "error"
    },
    {
      "inputs": [],
      "name": "InvalidAmount",
      "type": "error"
    },
    {
      "inputs": [],
      "name": "InvalidConfig",
      "type": "error"
    },
    {
      "inputs": [
        {
          "internalType": "bytes4",
          "name": "",
          "type": "bytes4"
        }
      ],
      "name": "InvalidMethod",
      "type": "error"
    },
    {
      "inputs": [],
      "name": "InvalidRecipient",
      "type": "error"
    },
    {
      "inputs": [],
      "name": "InvalidTarget",
      "type": "error"
    },
    {
      "inputs": [],
      "name": "InvalidValue",
      "type": "error"
    },
    {
      "inputs": [
        {
          "internalType": "address",
          "name": "smartAccount",
          "type": "address"
        }
      ],
      "name": "NotInitialized",
      "type": "error"
    },
    {
      "inputs": [
        {
          "internalType": "address",
          "name": "owner",
          "type": "address"
        }
      ],
      "name": "OwnableInvalidOwner",
      "type": "error"
    },
    {
      "inputs": [
        {
          "internalType": "address",
          "name": "account",
          "type": "address"
        }
      ],
      "name": "OwnableUnauthorizedAccount",
      "type": "error"
    },
    {
      "inputs": [],
      "name": "UnauthorizedAccess",
      "type": "error"
    },
    {
      "inputs": [],
      "name": "UnsupportedExecution",
      "type": "error"
    },
    {
      "anonymous": false,
      "inputs": [
        {
          "indexed": true,
          "internalType": "address",
          "name": "smartAccount",
          "type": "address"
        },
        {
          "indexed": true,
          "internalType": "address",
          "name": "target",
          "type": "address"
        },
        {
          "indexed": false,
          "internalType": "uint256",
          "name": "value",
          "type": "uint256"
        },
        {
          "indexed": false,
          "internalType": "bytes",
          "name": "callData",
          "type": "bytes"
        },
        {
          "indexed": false,
          "internalType": "uint256",
          "name": "createdAt",
          "type": "uint256"
        },
        {
          "indexed": false,
          "internalType": "uint256",
          "name": "nonce",
          "type": "uint256"
        }
      ],
      "name": "ExecutionInitiated",
      "type": "event"
    },
    {
      "anonymous": false,
      "inputs": [
        {
          "indexed": true,
          "internalType": "address",
          "name": "smartAccount",
          "type": "address"
        },
        {
          "indexed": true,
          "internalType": "address",
          "name": "target",
          "type": "address"
        },
        {
          "indexed": false,
          "internalType": "uint256",
          "name": "value",
          "type": "uint256"
        },
        {
          "indexed": false,
          "internalType": "bytes",
          "name": "callData",
          "type": "bytes"
        },
        {
          "indexed": false,
          "internalType": "uint256",
          "name": "nonce",
          "type": "uint256"
        }
      ],
      "name": "ExecutionSkipped",
      "type": "event"
    },
    {
      "anonymous": false,
      "inputs": [
        {
          "indexed": true,
          "internalType": "address",
          "name": "smartAccount",
          "type": "address"
        },
        {
          "indexed": true,
          "internalType": "address",
          "name": "target",
          "type": "address"
        },
        {
          "indexed": false,
          "internalType": "uint256",
          "name": "value",
          "type": "uint256"
        },
        {
          "indexed": false,
          "internalType": "bytes",
          "name": "callData",
          "type": "bytes"
        },
        {
          "indexed": false,
          "internalType": "uint256",
          "name": "nonce",
          "type": "uint256"
        }
      ],
      "name": "ExecutionSubmitted",
      "type": "event"
    },
    {
      "anonymous": false,
      "inputs": [
        {
          "indexed": true,
          "internalType": "address",
          "name": "previousOwner",
          "type": "address"
        },
        {
          "indexed": true,
          "internalType": "address",
          "name": "newOwner",
          "type": "address"
        }
      ],
      "name": "OwnershipTransferred",
      "type": "event"
    },
    {
      "inputs": [
        {
          "internalType": "address",
          "name": "_target",
          "type": "address"
        },
        {
          "internalType": "uint256",
          "name": "_value",
          "type": "uint256"
        },
        {
          "internalType": "bytes",
          "name": "_callData",
          "type": "bytes"
        }
      ],
      "name": "execute",
      "outputs": [],
      "stateMutability": "nonpayable",
      "type": "function"
    },
    {
      "inputs": [
        {
          "internalType": "address",
          "name": "_account",
          "type": "address"
        }
      ],
      "name": "hasPendingExecution",
      "outputs": [
        {
          "internalType": "bool",
          "name": "",
          "type": "bool"
        }
      ],
      "stateMutability": "view",
      "type": "function"
    },
    {
      "inputs": [
        {
          "internalType": "address",
          "name": "_target",
          "type": "address"
        },
        {
          "internalType": "uint256",
          "name": "_value",
          "type": "uint256"
        },
        {
          "internalType": "bytes",
          "name": "_callData",
          "type": "bytes"
        }
      ],
      "name": "initExecution",
      "outputs": [],
      "stateMutability": "nonpayable",
      "type": "function"
    },
    {
      "inputs": [
        {
          "internalType": "address",
          "name": "_account",
          "type": "address"
        }
      ],
      "name": "isInitialized",
      "outputs": [
        {
          "internalType": "bool",
          "name": "",
          "type": "bool"
        }
      ],
      "stateMutability": "view",
      "type": "function"
    },
    {
      "inputs": [
        {
          "internalType": "uint256",
          "name": "_typeID",
          "type": "uint256"
        }
      ],
      "name": "isModuleType",
      "outputs": [
        {
          "internalType": "bool",
          "name": "",
          "type": "bool"
        }
      ],
      "stateMutability": "pure",
      "type": "function"
    },
    {
      "inputs": [
        {
          "internalType": "address",
          "name": "_account",
          "type": "address"
        },
        {
          "internalType": "address",
          "name": "_target",
          "type": "address"
        }
      ],
      "name": "isWhitelisted",
      "outputs": [
        {
          "internalType": "bool",
          "name": "",
          "type": "bool"
        }
      ],
      "stateMutability": "view",
      "type": "function"
    },
    {
      "inputs": [],
      "name": "minExecCooldown",
      "outputs": [
        {
          "internalType": "uint256",
          "name": "",
          "type": "uint256"
        }
      ],
      "stateMutability": "view",
      "type": "function"
    },
    {
      "inputs": [],
      "name": "name",
      "outputs": [
        {
          "internalType": "string",
          "name": "",
          "type": "string"
        }
      ],
      "stateMutability": "pure",
      "type": "function"
    },
    {
      "inputs": [
        {
          "internalType": "bytes",
          "name": "_initData",
          "type": "bytes"
        }
      ],
      "name": "onInstall",
      "outputs": [],
      "stateMutability": "nonpayable",
      "type": "function"
    },
    {
      "inputs": [
        {
          "internalType": "bytes",
          "name": "",
          "type": "bytes"
        }
      ],
      "name": "onUninstall",
      "outputs": [],
      "stateMutability": "nonpayable",
      "type": "function"
    },
    {
      "inputs": [],
      "name": "owner",
      "outputs": [
        {
          "internalType": "address",
          "name": "",
          "type": "address"
        }
      ],
      "stateMutability": "view",
      "type": "function"
    },
    {
      "inputs": [
        {
          "internalType": "bytes",
          "name": "hookData",
          "type": "bytes"
        }
      ],
      "name": "postCheck",
      "outputs": [
        {
          "internalType": "bool",
          "name": "success",
          "type": "bool"
        }
      ],
      "stateMutability": "nonpayable",
      "type": "function"
    },
    {
      "inputs": [
        {
          "internalType": "address",
          "name": "msgSender",
          "type": "address"
        },
        {
          "internalType": "bytes",
          "name": "msgData",
          "type": "bytes"
        }
      ],
      "name": "preCheck",
      "outputs": [
        {
          "internalType": "bytes",
          "name": "hookData",
          "type": "bytes"
        }
      ],
      "stateMutability": "nonpayable",
      "type": "function"
    },
    {
      "inputs": [],
      "name": "renounceOwnership",
      "outputs": [],
      "stateMutability": "nonpayable",
      "type": "function"
    },
    {
      "inputs": [
        {
          "internalType": "uint256",
          "name": "_minExecCooldown",
          "type": "uint256"
        }
      ],
      "name": "setMinExecCooldown",
      "outputs": [],
      "stateMutability": "nonpayable",
      "type": "function"
    },
    {
      "inputs": [
        {
          "internalType": "address",
          "name": "_target",
          "type": "address"
        },
        {
          "internalType": "uint256",
          "name": "_value",
          "type": "uint256"
        },
        {
          "internalType": "bytes",
          "name": "_callData",
          "type": "bytes"
        }
      ],
      "name": "skipExecution",
      "outputs": [],
      "stateMutability": "nonpayable",
      "type": "function"
    },
    {
      "inputs": [
        {
          "internalType": "address",
          "name": "newOwner",
          "type": "address"
        }
      ],
      "name": "transferOwnership",
      "outputs": [],
      "stateMutability": "nonpayable",
      "type": "function"
    },
    {
      "inputs": [
        {
          "internalType": "address",
          "name": "_target",
          "type": "address"
        },
        {
          "internalType": "uint256",
          "name": "",
          "type": "uint256"
        },
        {
          "internalType": "bytes",
          "name": "_callData",
          "type": "bytes"
        },
        {
          "internalType": "bytes",
          "name": "_sessionKeyData",
          "type": "bytes"
        },
        {
          "internalType": "bytes",
          "name": "",
          "type": "bytes"
        }
      ],
      "name": "validateSessionParams",
      "outputs": [
        {
          "internalType": "address",
          "name": "signer",
          "type": "address"
        }
      ],
      "stateMutability": "nonpayable",
      "type": "function"
    },
    {
      "inputs": [],
      "name": "version",
      "outputs": [
        {
          "internalType": "string",
          "name": "",
          "type": "string"
        }
      ],
      "stateMutability": "pure",
      "type": "function"
    }
  ],
  "bytecode": "0x60806040523480156200001157600080fd5b5060405162001e9b38038062001e9b8339810160408190526200003491620000ca565b816001600160a01b0381166200006457604051631e4fbdf760e01b81526000600482015260240160405180910390fd5b6200006f816200007a565b506001555062000106565b600080546001600160a01b038381166001600160a01b0319831681178455604051919092169283917f8be0079c531659141344cd1fd0a4f28419497f9722a3daafe3b4186f6b6457e09190a35050565b60008060408385031215620000de57600080fd5b82516001600160a01b0381168114620000f657600080fd5b6020939093015192949293505050565b611d8580620001166000396000f3fe608060405234801561001057600080fd5b50600436106101515760003560e01c8063b61d27f6116100cd578063d60b347f11610081578063e906277711610066578063e906277714610324578063ecd0596114610337578063f2fde38b1461034a57600080fd5b8063d60b347f146102db578063dea9de50146102ee57600080fd5b8063c20bccb9116100b2578063c20bccb91461029e578063c5d518d3146102b1578063cd23f729146102c457600080fd5b8063b61d27f614610278578063b6b352721461028b57600080fd5b80636d61fe70116101245780638a91b0e3116101095780638a91b0e31461022d5780638da5cb5b146102405780639d09b8e61461026557600080fd5b80636d61fe7014610210578063715018a61461022557600080fd5b806306fdde0314610156578063173bf7da146101a157806320af8e9a146101c457806354fd4d50146101d7575b600080fd5b60408051808201909152601081527f44656c61796564457865637574696f6e0000000000000000000000000000000060208201525b6040516101989190611653565b60405180910390f35b6101b46101af3660046116a8565b61035d565b6040519015158152602001610198565b61018b6101d23660046116ff565b610381565b60408051808201909152600581527f302e302e31000000000000000000000000000000000000000000000000000000602082015261018b565b61022361021e3660046116a8565b610534565b005b6102236105ec565b61022361023b3660046116a8565b610600565b6000546001600160a01b03165b6040516001600160a01b039091168152602001610198565b610223610273366004611754565b610643565b610223610286366004611754565b610750565b6101b46102993660046117b0565b610832565b61024d6102ac3660046117e9565b610857565b6102236102bf366004611754565b610941565b6102cd60015481565b604051908152602001610198565b6101b46102e936600461189f565b610a6f565b6101b46102fc36600461189f565b6001600160a01b03166000908152600660209081526040808320546007909252909120541190565b6102236103323660046118bc565b610a7c565b6101b46103453660046118bc565b610a89565b61022361035836600461189f565b610a9c565b600081810361036e5750600161037b565b6103788383610af3565b90505b92915050565b6060600061039260048285876118d5565b61039b916118ff565b90507f1651a3ad000000000000000000000000000000000000000000000000000000006001600160e01b03198216016103e1576103d9858585610b65565b91505061052d565b7f296e369c000000000000000000000000000000000000000000000000000000006001600160e01b031982160161041d576103d9858585610c72565b7f6ae81d61000000000000000000000000000000000000000000000000000000006001600160e01b03198216016104ec576000848461045e60206084611945565b61046b92608492906118d5565b61047491611958565b9050366000866084876104878683611976565b92610494939291906118d5565b909250905060006104a960246004898b6118d5565b6104b291611958565b905060006104c4604460308a8c6118d5565b6104cd91611989565b60601c90506104df8a83838787610d0f565b965050505050505061052d565b7f58e89c58000000000000000000000000000000000000000000000000000000006001600160e01b0319821601610151576000848461045e60206084611945565b9392505050565b336000908152600260205260408120908061055184860186611a27565b91509150600154821015610591576040517f35be3ac800000000000000000000000000000000000000000000000000000000815260040160405180910390fd5b81835560005b81518110156105d8576105cf8282815181106105b5576105b5611ad2565b602002602001015185600101610d5890919063ffffffff16565b50600101610597565b506105e4600333610d58565b505050505050565b6105f4610d6d565b6105fe6000610db3565b565b336000908152600260205260408120818155906001820181818161062482826115d1565b50505050505061063e336003610e1b90919063ffffffff16565b505050565b61064e600333610e30565b61066b57604051631a27eac360e11b815260040160405180910390fd5b600061067985858585610e52565b6000818152600860205260408120549192508190036106b357604051636d983ba360e01b8152600481018390526024015b60405180910390fd5b336000908152600660205260408120805482906106cf90611ae8565b918290555090508181146106f65760405163ce2906b960e01b815260040160405180910390fd5b866001600160a01b0316336001600160a01b03167f133fae9f43d622ff1cddce135292eea35a678444b651fd808a6f7e7e6c293b0c8888888760405161073f9493929190611b2a565b60405180910390a350505050505050565b61075b600333610e30565b61077857604051631a27eac360e11b815260040160405180910390fd5b3363d691c964610786610ea6565b6107c7878787878080601f016020809104026020016040519081016040528093929190818152602001838380828437600092019190915250610eb992505050565b6040518363ffffffff1660e01b81526004016107e4929190611b55565b6000604051808303816000875af1158015610803573d6000803e3d6000fd5b505050506040513d6000823e601f3d908101601f1916820160405261082b9190810190611b6e565b5050505050565b6001600160a01b03821660009081526002602052604081206103789060010183610e30565b60007fb61d27f600000000000000000000000000000000000000000000000000000000610887600483898b6118d5565b610890916118ff565b6001600160e01b0319828116908216146108e2576040517f898522970000000000000000000000000000000000000000000000000000000081526001600160e01b0319821660048201526024016106aa565b8a6001600160a01b0381163014610925576040517f82d5d76a00000000000000000000000000000000000000000000000000000000815260040160405180910390fd5b6109318789018961189f565b9c9b505050505050505050505050565b61094c600333610e30565b61096957604051631a27eac360e11b815260040160405180910390fd5b600061097785858585610e52565b33600090815260066020908152604080832054848452600890925290912054919250429180158015906109a957508181115b156109c75760405163ce2906b960e01b815260040160405180910390fd5b3360009081526005602052604090206109e1908585610ee8565b5033600090815260076020526040812080549091906109ff90611ae8565b918290555060008581526008602052604090819020829055519091506001600160a01b0389169033907f4150b93a9e011e237189c00e832a6b188b252e6c6fb805ca427d8c8de0c240fa90610a5d908b908b908b908a908990611c73565b60405180910390a35050505050505050565b600061037b600383610e30565b610a84610d6d565b600155565b6000600482148061037b57505060021490565b610aa4610d6d565b6001600160a01b038116610ae7576040517f1e4fbdf7000000000000000000000000000000000000000000000000000000008152600060048201526024016106aa565b610af081610db3565b50565b604080517fd26794af0798dbe415d32ab1faaa2c70b478f538bf66eea16fc0e275c4350095602082015260009101604051602081830303815290604052805190602001208383604051610b47929190611ca1565b604051809103902003610b5c5750600161037b565b50600092915050565b606060008383610b7760206064611945565b610b8492606492906118d5565b610b8d91611958565b905036600085606486610ba08683611976565b92610bad939291906118d5565b90925090506000610bc260246004888a6118d5565b610bcb91611958565b9050806001600160f81b03198116610c1257600080366000610bed8888610efd565b9350935093509350610c028d85858585610f4e565b995050505050505050505061052d565b6001600160f81b031981167f010000000000000000000000000000000000000000000000000000000000000003610c665783358401602081019035610c588b838361109b565b97505050505050505061052d565b50505050509392505050565b606060008383610c8460206064611945565b610c9192606492906118d5565b610c9a91611958565b905036600085606486610cad8683611976565b92610cba939291906118d5565b90925090506000610ccf60246004888a6118d5565b610cd891611958565b9050806001600160f81b03198116610c1257600080366000610cfa8888610efd565b9350935093509350610c028d858585856110cf565b604080517fd26794af0798dbe415d32ab1faaa2c70b478f538bf66eea16fc0e275c435009560208201526060910160405160208183030381529060405290505b95945050505050565b6000610378836001600160a01b038416611356565b6000546001600160a01b031633146105fe576040517f118cdaa70000000000000000000000000000000000000000000000000000000081523360048201526024016106aa565b600080546001600160a01b038381167fffffffffffffffffffffffff0000000000000000000000000000000000000000831681178455604051919092169283917f8be0079c531659141344cd1fd0a4f28419497f9722a3daafe3b4186f6b6457e09190a35050565b6000610378836001600160a01b0384166113a5565b6001600160a01b03811660009081526001830160205260408120541515610378565b60008083838080601f016020809104026020016040519081016040528093929190818152602001838380828437600092019190915250929350610e9c925088915087905083611498565b9695505050505050565b6000610eb4818080806114ce565b905090565b6060838383604051602001610ed093929190611cb1565b60405160208183030381529060405290509392505050565b6000610ef5848484611530565b949350505050565b6000803681610f0f60148287896118d5565b610f1891611989565b60601c9350610f2b6034601487896118d5565b610f3491611958565b9250610f4385603481896118d5565b949793965094505050565b60405163d60b347f60e01b8152336004820152606090309063d60b347f90602401602060405180830381865afa158015610f8c573d6000803e3d6000fd5b505050506040513d601f19601f82011682018060405250810190610fb09190611cf0565b610fcd57604051631a27eac360e11b815260040160405180910390fd5b306001600160a01b0386160361101e57604080517fd26794af0798dbe415d32ab1faaa2c70b478f538bf66eea16fc0e275c43500956020820152016040516020818303038152906040529050610d4f565b33600090815260026020526040902061103a6001820187610e30565b1561108257604080517fd26794af0798dbe415d32ab1faaa2c70b478f538bf66eea16fc0e275c43500956020820152015b604051602081830303815290604052915050610d4f565b60405163ce2906b960e01b815260040160405180910390fd5b60606040517f226f153d00000000000000000000000000000000000000000000000000000000815260040160405180910390fd5b60405163d60b347f60e01b8152336004820152606090309063d60b347f90602401602060405180830381865afa15801561110d573d6000803e3d6000fd5b505050506040513d601f19601f820116820180604052508101906111319190611cf0565b61114e57604051631a27eac360e11b815260040160405180910390fd5b3360009081526002602052604090206001600160a01b03861630148061117c575061117c6001820188610e30565b156111b157604080517fd26794af0798dbe415d32ab1faaa2c70b478f538bf66eea16fc0e275c435009560208201520161106b565b60006111f4878787878080601f01602080910402602001604051908101604052809392919081815260200183838082843760009201919091525061149892505050565b336000908152600560205260408120919250908190611213908461154d565b915091508161123857604051636d983ba360e01b8152600481018490526024016106aa565b3360009081526006602052604081208054829061125490611ae8565b918290555060008581526008602052604090205490915080821461128b5760405163ce2906b960e01b815260040160405180910390fd5b855460009061129a9085611976565b9050428111156112bd5760405163ce2906b960e01b815260040160405180910390fd5b8b6001600160a01b0316336001600160a01b03167f310f720156d6fdb5f56799d07e3bd9042a92b6c5818f96a006a812a7e60d7d958d8d8d876040516113069493929190611b2a565b60405180910390a3604080517fd26794af0798dbe415d32ab1faaa2c70b478f538bf66eea16fc0e275c4350095602082015201604051602081830303815290604052975050505050505050610d4f565b600081815260018301602052604081205461139d5750815460018181018455600084815260208082209093018490558454848252828601909352604090209190915561037b565b50600061037b565b6000818152600183016020526040812054801561148e5760006113c9600183611945565b85549091506000906113dd90600190611945565b90508082146114425760008660000182815481106113fd576113fd611ad2565b906000526020600020015490508087600001848154811061142057611420611ad2565b6000918252602080832090910192909255918252600188019052604090208390555b855486908061145357611453611d12565b60019003818190600052602060002001600090559055856001016000868152602001908152602001600020600090556001935050505061037b565b600091505061037b565b60008383836040516020016114af93929190611cb1565b6040516020818303038152906040528051906020012090509392505050565b604080516001600160f81b03198087166020830152851660218201526000602282018190526001600160e01b03198516602683015269ffffffffffffffffffff198416602a8301529101604051602081830303815290604052610d4f90611d28565b60008281526002840160205260408120829055610ef5848461156b565b600080808061155c8686611577565b909450925050505b9250929050565b60006103788383611356565b60008181526002830160205260408120548190806115a65761159985856115b1565b9250600091506115649050565b600192509050611564565b600081815260018301602052604081205461037890849084908490151584565b5080546000825590600052602060002090810190610af091905b808211156115ff57600081556001016115eb565b5090565b60005b8381101561161e578181015183820152602001611606565b50506000910152565b6000815180845261163f816020860160208601611603565b601f01601f19169290920160200192915050565b6020815260006103786020830184611627565b60008083601f84011261167857600080fd5b50813567ffffffffffffffff81111561169057600080fd5b60208301915083602082850101111561156457600080fd5b600080602083850312156116bb57600080fd5b823567ffffffffffffffff8111156116d257600080fd5b6116de85828601611666565b90969095509350505050565b6001600160a01b0381168114610af057600080fd5b60008060006040848603121561171457600080fd5b833561171f816116ea565b9250602084013567ffffffffffffffff81111561173b57600080fd5b61174786828701611666565b9497909650939450505050565b6000806000806060858703121561176a57600080fd5b8435611775816116ea565b935060208501359250604085013567ffffffffffffffff81111561179857600080fd5b6117a487828801611666565b95989497509550505050565b600080604083850312156117c357600080fd5b82356117ce816116ea565b915060208301356117de816116ea565b809150509250929050565b60008060008060008060008060a0898b03121561180557600080fd5b8835611810816116ea565b975060208901359650604089013567ffffffffffffffff8082111561183457600080fd5b6118408c838d01611666565b909850965060608b013591508082111561185957600080fd5b6118658c838d01611666565b909650945060808b013591508082111561187e57600080fd5b5061188b8b828c01611666565b999c989b5096995094979396929594505050565b6000602082840312156118b157600080fd5b813561052d816116ea565b6000602082840312156118ce57600080fd5b5035919050565b600080858511156118e557600080fd5b838611156118f257600080fd5b5050820193919092039150565b6001600160e01b031981358181169160048510156119275780818660040360031b1b83161692505b505092915050565b634e487b7160e01b600052601160045260246000fd5b8181038181111561037b5761037b61192f565b8035602083101561037b57600019602084900360031b1b1692915050565b8082018082111561037b5761037b61192f565b6bffffffffffffffffffffffff1981358181169160148510156119275760149490940360031b84901b1690921692915050565b634e487b7160e01b600052604160045260246000fd5b604051601f8201601f1916810167ffffffffffffffff811182821017156119fb576119fb6119bc565b604052919050565b600067ffffffffffffffff821115611a1d57611a1d6119bc565b5060051b60200190565b60008060408385031215611a3a57600080fd5b8235915060208084013567ffffffffffffffff811115611a5957600080fd5b8401601f81018613611a6a57600080fd5b8035611a7d611a7882611a03565b6119d2565b81815260059190911b82018301908381019088831115611a9c57600080fd5b928401925b82841015611ac3578335611ab4816116ea565b82529284019290840190611aa1565b80955050505050509250929050565b634e487b7160e01b600052603260045260246000fd5b600060018201611afa57611afa61192f565b5060010190565b81835281816020850137506000828201602090810191909152601f909101601f19169091010190565b848152606060208201526000611b44606083018587611b01565b905082604083015295945050505050565b828152604060208201526000610ef56040830184611627565b60006020808385031215611b8157600080fd5b825167ffffffffffffffff80821115611b9957600080fd5b8185019150601f86601f840112611baf57600080fd5b8251611bbd611a7882611a03565b81815260059190911b84018501908581019089831115611bdc57600080fd5b8686015b83811015611c6557805186811115611bf85760008081fd5b8701603f81018c13611c0a5760008081fd5b88810151604088821115611c2057611c206119bc565b611c31828901601f19168c016119d2565b8281528e82848601011115611c465760008081fd5b611c55838d8301848701611603565b8652505050918701918701611be0565b509998505050505050505050565b858152608060208201526000611c8d608083018688611b01565b604083019490945250606001529392505050565b8183823760009101908152919050565b6bffffffffffffffffffffffff198460601b16815282601482015260008251611ce1816034850160208701611603565b91909101603401949350505050565b600060208284031215611d0257600080fd5b8151801515811461052d57600080fd5b634e487b7160e01b600052603160045260246000fd5b80516020808301519190811015611d49576000198160200360031b1b821691505b5091905056fea2646970667358221220d5f42a7f2f292e787ab404cb7c87abb35d8e81b066a0eb65ddd6449e8c531d6364736f6c63430008180033",
  "linkReferences": {},
  "deployedLinkReferences": {}
}