{
  "_format": "hh-sol-artifact-1",
  "contractName": "DelayedExecution",
  "sourceName": "contracts/execution/DelayedExecution.sol",
  "abi": [
    {
      "inputs": [
        {
          "internalType": "address",
          "name": "_owner",
          "type": "address"
        },
        {
          "internalType": "uint256",
          "name": "_minExecCooldown",
          "type": "uint256"
        }
      ],
      "stateMutability": "nonpayable",
      "type": "constructor"
    },
    {
      "inputs": [
        {
          "internalType": "address",
          "name": "smartAccount",
          "type": "address"
        }
      ],
      "name": "AlreadyInitialized",
      "type": "error"
    },
    {
      "inputs": [
        {
          "internalType": "bytes32",
          "name": "executionHash",
          "type": "bytes32"
        }
      ],
      "name": "ExecutionHashNotFound",
      "type": "error"
    },
    {
      "inputs": [],
      "name": "ExecutionNotAuthorized",
      "type": "error"
    },
    {
      "inputs": [],
      "name": "HookInvalidSelector",
      "type": "error"
    },
    {
      "inputs": [],
      "name": "InvalidConfig",
      "type": "error"
    },
    {
      "inputs": [
        {
          "internalType": "address",
          "name": "smartAccount",
          "type": "address"
        }
      ],
      "name": "NotInitialized",
      "type": "error"
    },
    {
      "inputs": [
        {
          "internalType": "address",
          "name": "owner",
          "type": "address"
        }
      ],
      "name": "OwnableInvalidOwner",
      "type": "error"
    },
    {
      "inputs": [
        {
          "internalType": "address",
          "name": "account",
          "type": "address"
        }
      ],
      "name": "OwnableUnauthorizedAccount",
      "type": "error"
    },
    {
      "inputs": [],
      "name": "UnauthorizedAccess",
      "type": "error"
    },
    {
      "inputs": [],
      "name": "UnsupportedExecution",
      "type": "error"
    },
    {
      "anonymous": false,
      "inputs": [
        {
          "indexed": true,
          "internalType": "address",
          "name": "smartAccount",
          "type": "address"
        },
        {
          "indexed": true,
          "internalType": "address",
          "name": "target",
          "type": "address"
        },
        {
          "indexed": false,
          "internalType": "uint256",
          "name": "value",
          "type": "uint256"
        },
        {
          "indexed": false,
          "internalType": "bytes",
          "name": "callData",
          "type": "bytes"
        },
        {
          "indexed": false,
          "internalType": "uint256",
          "name": "createdAt",
          "type": "uint256"
        },
        {
          "indexed": false,
          "internalType": "uint256",
          "name": "nonce",
          "type": "uint256"
        }
      ],
      "name": "ExecutionInitiated",
      "type": "event"
    },
    {
      "anonymous": false,
      "inputs": [
        {
          "indexed": true,
          "internalType": "address",
          "name": "smartAccount",
          "type": "address"
        },
        {
          "indexed": true,
          "internalType": "address",
          "name": "target",
          "type": "address"
        },
        {
          "indexed": false,
          "internalType": "uint256",
          "name": "value",
          "type": "uint256"
        },
        {
          "indexed": false,
          "internalType": "bytes",
          "name": "callData",
          "type": "bytes"
        },
        {
          "indexed": false,
          "internalType": "uint256",
          "name": "nonce",
          "type": "uint256"
        }
      ],
      "name": "ExecutionSkipped",
      "type": "event"
    },
    {
      "anonymous": false,
      "inputs": [
        {
          "indexed": true,
          "internalType": "address",
          "name": "smartAccount",
          "type": "address"
        },
        {
          "indexed": true,
          "internalType": "address",
          "name": "target",
          "type": "address"
        },
        {
          "indexed": false,
          "internalType": "uint256",
          "name": "value",
          "type": "uint256"
        },
        {
          "indexed": false,
          "internalType": "bytes",
          "name": "callData",
          "type": "bytes"
        },
        {
          "indexed": false,
          "internalType": "uint256",
          "name": "nonce",
          "type": "uint256"
        }
      ],
      "name": "ExecutionSubmitted",
      "type": "event"
    },
    {
      "anonymous": false,
      "inputs": [
        {
          "indexed": true,
          "internalType": "address",
          "name": "previousOwner",
          "type": "address"
        },
        {
          "indexed": true,
          "internalType": "address",
          "name": "newOwner",
          "type": "address"
        }
      ],
      "name": "OwnershipTransferred",
      "type": "event"
    },
    {
      "inputs": [
        {
          "internalType": "address",
          "name": "_account",
          "type": "address"
        },
        {
          "internalType": "address",
          "name": "_target",
          "type": "address"
        },
        {
          "internalType": "uint256",
          "name": "_value",
          "type": "uint256"
        },
        {
          "internalType": "bytes",
          "name": "_callData",
          "type": "bytes"
        }
      ],
      "name": "execute",
      "outputs": [],
      "stateMutability": "nonpayable",
      "type": "function"
    },
    {
      "inputs": [
        {
          "internalType": "address",
          "name": "_account",
          "type": "address"
        }
      ],
      "name": "hasPendingExecution",
      "outputs": [
        {
          "internalType": "bool",
          "name": "",
          "type": "bool"
        }
      ],
      "stateMutability": "view",
      "type": "function"
    },
    {
      "inputs": [
        {
          "internalType": "address",
          "name": "_target",
          "type": "address"
        },
        {
          "internalType": "uint256",
          "name": "_value",
          "type": "uint256"
        },
        {
          "internalType": "bytes",
          "name": "_callData",
          "type": "bytes"
        }
      ],
      "name": "initExecution",
      "outputs": [],
      "stateMutability": "nonpayable",
      "type": "function"
    },
    {
      "inputs": [
        {
          "internalType": "address",
          "name": "_account",
          "type": "address"
        }
      ],
      "name": "isInitialized",
      "outputs": [
        {
          "internalType": "bool",
          "name": "",
          "type": "bool"
        }
      ],
      "stateMutability": "view",
      "type": "function"
    },
    {
      "inputs": [
        {
          "internalType": "uint256",
          "name": "typeID",
          "type": "uint256"
        }
      ],
      "name": "isModuleType",
      "outputs": [
        {
          "internalType": "bool",
          "name": "",
          "type": "bool"
        }
      ],
      "stateMutability": "pure",
      "type": "function"
    },
    {
      "inputs": [
        {
          "internalType": "address",
          "name": "_account",
          "type": "address"
        },
        {
          "internalType": "address",
          "name": "_target",
          "type": "address"
        }
      ],
      "name": "isWhitelisted",
      "outputs": [
        {
          "internalType": "bool",
          "name": "",
          "type": "bool"
        }
      ],
      "stateMutability": "view",
      "type": "function"
    },
    {
      "inputs": [],
      "name": "minExecCooldown",
      "outputs": [
        {
          "internalType": "uint256",
          "name": "",
          "type": "uint256"
        }
      ],
      "stateMutability": "view",
      "type": "function"
    },
    {
      "inputs": [],
      "name": "name",
      "outputs": [
        {
          "internalType": "string",
          "name": "",
          "type": "string"
        }
      ],
      "stateMutability": "pure",
      "type": "function"
    },
    {
      "inputs": [
        {
          "internalType": "bytes",
          "name": "data",
          "type": "bytes"
        }
      ],
      "name": "onInstall",
      "outputs": [],
      "stateMutability": "nonpayable",
      "type": "function"
    },
    {
      "inputs": [
        {
          "internalType": "bytes",
          "name": "",
          "type": "bytes"
        }
      ],
      "name": "onUninstall",
      "outputs": [],
      "stateMutability": "nonpayable",
      "type": "function"
    },
    {
      "inputs": [],
      "name": "owner",
      "outputs": [
        {
          "internalType": "address",
          "name": "",
          "type": "address"
        }
      ],
      "stateMutability": "view",
      "type": "function"
    },
    {
      "inputs": [
        {
          "internalType": "bytes",
          "name": "hookData",
          "type": "bytes"
        }
      ],
      "name": "postCheck",
      "outputs": [
        {
          "internalType": "bool",
          "name": "success",
          "type": "bool"
        }
      ],
      "stateMutability": "nonpayable",
      "type": "function"
    },
    {
      "inputs": [
        {
          "internalType": "address",
          "name": "msgSender",
          "type": "address"
        },
        {
          "internalType": "bytes",
          "name": "msgData",
          "type": "bytes"
        }
      ],
      "name": "preCheck",
      "outputs": [
        {
          "internalType": "bytes",
          "name": "hookData",
          "type": "bytes"
        }
      ],
      "stateMutability": "nonpayable",
      "type": "function"
    },
    {
      "inputs": [],
      "name": "renounceOwnership",
      "outputs": [],
      "stateMutability": "nonpayable",
      "type": "function"
    },
    {
      "inputs": [
        {
          "internalType": "uint256",
          "name": "_minExecCooldown",
          "type": "uint256"
        }
      ],
      "name": "setMinExecCooldown",
      "outputs": [],
      "stateMutability": "nonpayable",
      "type": "function"
    },
    {
      "inputs": [
        {
          "internalType": "address",
          "name": "_target",
          "type": "address"
        },
        {
          "internalType": "uint256",
          "name": "_value",
          "type": "uint256"
        },
        {
          "internalType": "bytes",
          "name": "_callData",
          "type": "bytes"
        }
      ],
      "name": "skipExecution",
      "outputs": [],
      "stateMutability": "nonpayable",
      "type": "function"
    },
    {
      "inputs": [
        {
          "internalType": "address",
          "name": "newOwner",
          "type": "address"
        }
      ],
      "name": "transferOwnership",
      "outputs": [],
      "stateMutability": "nonpayable",
      "type": "function"
    },
    {
      "inputs": [],
      "name": "version",
      "outputs": [
        {
          "internalType": "string",
          "name": "",
          "type": "string"
        }
      ],
      "stateMutability": "pure",
      "type": "function"
    }
  ],
  "bytecode": "0x60806040523480156200001157600080fd5b5060405162001e1d38038062001e1d8339810160408190526200003491620000ca565b816001600160a01b0381166200006457604051631e4fbdf760e01b81526000600482015260240160405180910390fd5b6200006f816200007a565b506001555062000106565b600080546001600160a01b038381166001600160a01b0319831681178455604051919092169283917f8be0079c531659141344cd1fd0a4f28419497f9722a3daafe3b4186f6b6457e09190a35050565b60008060408385031215620000de57600080fd5b82516001600160a01b0381168114620000f657600080fd5b6020939093015192949293505050565b611d0780620001166000396000f3fe608060405234801561001057600080fd5b50600436106101365760003560e01c80639d09b8e6116100b2578063d60b347f11610081578063e906277711610066578063e9062777146102ec578063ecd05961146102ff578063f2fde38b1461031257600080fd5b8063d60b347f146102a3578063dea9de50146102b657600080fd5b80639d09b8e614610253578063b6b3527214610266578063c5d518d314610279578063cd23f7291461028c57600080fd5b80636d61fe70116101095780638a91b0e3116100ee5780638a91b0e3146102125780638da5cb5b146102255780639aefaff81461024057600080fd5b80636d61fe70146101f5578063715018a61461020a57600080fd5b806306fdde031461013b578063173bf7da1461018657806320af8e9a146101a957806354fd4d50146101bc575b600080fd5b60408051808201909152601081527f44656c61796564457865637574696f6e0000000000000000000000000000000060208201525b60405161017d9190611623565b60405180910390f35b610199610194366004611678565b610325565b604051901515815260200161017d565b6101706101b73660046116d6565b610349565b60408051808201909152600581527f302e302e310000000000000000000000000000000000000000000000000000006020820152610170565b610208610203366004611678565b6104fc565b005b6102086105b4565b610208610220366004611678565b6105c8565b6000546040516001600160a01b03909116815260200161017d565b61020861024e366004611729565b61060b565b610208610261366004611798565b6106c7565b6101996102743660046117f2565b6107d4565b610208610287366004611798565b6107f9565b61029560015481565b60405190815260200161017d565b6101996102b1366004611825565b610927565b6101996102c4366004611825565b6001600160a01b03166000908152600660209081526040808320546007909252909120541190565b6102086102fa366004611840565b610934565b61019961030d366004611840565b610941565b610208610320366004611825565b610954565b600081810361033657506001610343565b61034083836109ab565b90505b92915050565b6060600061035a6004828587611859565b61036391611883565b90507f1651a3ad000000000000000000000000000000000000000000000000000000006001600160e01b03198216016103a9576103a1858585610a1d565b9150506104f5565b7f296e369c000000000000000000000000000000000000000000000000000000006001600160e01b03198216016103e5576103a1858585610b2a565b7f6ae81d61000000000000000000000000000000000000000000000000000000006001600160e01b03198216016104b45760008484610426602060846118c9565b6104339260849290611859565b61043c916118dc565b90503660008660848761044f86836118fa565b9261045c93929190611859565b9092509050600061047160246004898b611859565b61047a916118dc565b9050600061048c604460308a8c611859565b6104959161190d565b60601c90506104a78a83838787610bc7565b96505050505050506104f5565b7f58e89c58000000000000000000000000000000000000000000000000000000006001600160e01b03198216016101365760008484610426602060846118c9565b9392505050565b3360009081526002602052604081209080610519848601866119ab565b91509150600154821015610559576040517f35be3ac800000000000000000000000000000000000000000000000000000000815260040160405180910390fd5b81835560005b81518110156105a05761059782828151811061057d5761057d611a54565b602002602001015185600101610c1090919063ffffffff16565b5060010161055f565b506105ac600333610c10565b505050505050565b6105bc610c25565b6105c66000610c6b565b565b33600090815260026020526040812081815590600182018181816105ec82826115a1565b505050505050610606336003610cd390919063ffffffff16565b505050565b846001600160a01b031663d691c964610622610ce8565b610663878787878080601f016020809104026020016040519081016040528093929190818152602001838380828437600092019190915250610cfb92505050565b6040518363ffffffff1660e01b8152600401610680929190611a6a565b6000604051808303816000875af115801561069f573d6000803e3d6000fd5b505050506040513d6000823e601f3d908101601f191682016040526105ac9190810190611a83565b6106d2600333610d2a565b6106ef57604051631a27eac360e11b815260040160405180910390fd5b60006106fd85858585610d4c565b60008181526008602052604081205491925081900361073757604051636d983ba360e01b8152600481018390526024015b60405180910390fd5b3360009081526006602052604081208054829061075390611b88565b9182905550905081811461077a5760405163ce2906b960e01b815260040160405180910390fd5b866001600160a01b0316336001600160a01b03167f133fae9f43d622ff1cddce135292eea35a678444b651fd808a6f7e7e6c293b0c888888876040516107c39493929190611bca565b60405180910390a350505050505050565b6001600160a01b03821660009081526002602052604081206103409060010183610d2a565b610804600333610d2a565b61082157604051631a27eac360e11b815260040160405180910390fd5b600061082f85858585610d4c565b336000908152600660209081526040808320548484526008909252909120549192504291801580159061086157508181115b1561087f5760405163ce2906b960e01b815260040160405180910390fd5b336000908152600560205260409020610899908585610da0565b5033600090815260076020526040812080549091906108b790611b88565b918290555060008581526008602052604090819020829055519091506001600160a01b0389169033907f4150b93a9e011e237189c00e832a6b188b252e6c6fb805ca427d8c8de0c240fa90610915908b908b908b908a908990611bf5565b60405180910390a35050505050505050565b6000610343600383610d2a565b61093c610c25565b600155565b6000600482148061034357505060021490565b61095c610c25565b6001600160a01b03811661099f576040517f1e4fbdf70000000000000000000000000000000000000000000000000000000081526000600482015260240161072e565b6109a881610c6b565b50565b604080517fd26794af0798dbe415d32ab1faaa2c70b478f538bf66eea16fc0e275c43500956020820152600091016040516020818303038152906040528051906020012083836040516109ff929190611c23565b604051809103902003610a1457506001610343565b50600092915050565b606060008383610a2f602060646118c9565b610a3c9260649290611859565b610a45916118dc565b905036600085606486610a5886836118fa565b92610a6593929190611859565b90925090506000610a7a60246004888a611859565b610a83916118dc565b9050806001600160f81b03198116610aca57600080366000610aa58888610db5565b9350935093509350610aba8d85858585610e06565b99505050505050505050506104f5565b6001600160f81b031981167f010000000000000000000000000000000000000000000000000000000000000003610b1e5783358401602081019035610b108b8383610faf565b9750505050505050506104f5565b50505050509392505050565b606060008383610b3c602060646118c9565b610b499260649290611859565b610b52916118dc565b905036600085606486610b6586836118fa565b92610b7293929190611859565b90925090506000610b8760246004888a611859565b610b90916118dc565b9050806001600160f81b03198116610aca57600080366000610bb28888610db5565b9350935093509350610aba8d85858585610fe3565b604080517fd26794af0798dbe415d32ab1faaa2c70b478f538bf66eea16fc0e275c435009560208201526060910160405160208183030381529060405290505b95945050505050565b6000610340836001600160a01b038416611326565b6000546001600160a01b031633146105c6576040517f118cdaa700000000000000000000000000000000000000000000000000000000815233600482015260240161072e565b600080546001600160a01b038381167fffffffffffffffffffffffff0000000000000000000000000000000000000000831681178455604051919092169283917f8be0079c531659141344cd1fd0a4f28419497f9722a3daafe3b4186f6b6457e09190a35050565b6000610340836001600160a01b038416611375565b6000610cf681808080611468565b905090565b6060838383604051602001610d1293929190611c33565b60405160208183030381529060405290509392505050565b6001600160a01b03811660009081526001830160205260408120541515610340565b60008083838080601f016020809104026020016040519081016040528093929190818152602001838380828437600092019190915250929350610d969250889150879050836114ca565b9695505050505050565b6000610dad848484611500565b949350505050565b6000803681610dc76014828789611859565b610dd09161190d565b60601c9350610de3603460148789611859565b610dec916118dc565b9250610dfb8560348189611859565b949793965094505050565b60405163d60b347f60e01b8152336004820152606090309063d60b347f90602401602060405180830381865afa158015610e44573d6000803e3d6000fd5b505050506040513d601f19601f82011682018060405250810190610e689190611c72565b610e8557604051631a27eac360e11b815260040160405180910390fd5b600060048310610ea957610e9d600460008587611859565b610ea691611883565b90505b6001600160a01b03861630148015610eea57506001600160e01b031981167f9aefaff800000000000000000000000000000000000000000000000000000000145b15610f3157604080517fd26794af0798dbe415d32ab1faaa2c70b478f538bf66eea16fc0e275c4350095602082015201604051602081830303815290604052915050610c07565b336000908152600260205260409020610f4d6001820188610d2a565b15610f9657604080517fd26794af0798dbe415d32ab1faaa2c70b478f538bf66eea16fc0e275c43500956020820152015b60405160208183030381529060405292505050610c07565b60405163ce2906b960e01b815260040160405180910390fd5b60606040517f226f153d00000000000000000000000000000000000000000000000000000000815260040160405180910390fd5b60405163d60b347f60e01b8152336004820152606090309063d60b347f90602401602060405180830381865afa158015611021573d6000803e3d6000fd5b505050506040513d601f19601f820116820180604052508101906110459190611c72565b61106257604051631a27eac360e11b815260040160405180910390fd5b6000600483106110865761107a600460008587611859565b61108391611883565b90505b3360009081526002602052604090206001600160a01b0387163014801561110957506001600160e01b031982167fc5d518d300000000000000000000000000000000000000000000000000000000148061110957506001600160e01b031982167f9d09b8e600000000000000000000000000000000000000000000000000000000145b1561113e57604080517fd26794af0798dbe415d32ab1faaa2c70b478f538bf66eea16fc0e275c4350095602082015201610f7e565b61114b6001820189610d2a565b1561118057604080517fd26794af0798dbe415d32ab1faaa2c70b478f538bf66eea16fc0e275c4350095602082015201610f7e565b60006111c3888888888080601f0160208091040260200160405190810160405280939291908181526020018383808284376000920191909152506114ca92505050565b3360009081526005602052604081209192509081906111e2908461151d565b915091508161120757604051636d983ba360e01b81526004810184905260240161072e565b3360009081526006602052604081208054829061122390611b88565b918290555060008581526008602052604090205490915080821461125a5760405163ce2906b960e01b815260040160405180910390fd5b855460009061126990856118fa565b90504281111561128c5760405163ce2906b960e01b815260040160405180910390fd5b8c6001600160a01b0316336001600160a01b03167f310f720156d6fdb5f56799d07e3bd9042a92b6c5818f96a006a812a7e60d7d958e8e8e876040516112d59493929190611bca565b60405180910390a3604080517fd26794af0798dbe415d32ab1faaa2c70b478f538bf66eea16fc0e275c435009560208201520160405160208183030381529060405298505050505050505050610c07565b600081815260018301602052604081205461136d57508154600181810184556000848152602080822090930184905584548482528286019093526040902091909155610343565b506000610343565b6000818152600183016020526040812054801561145e5760006113996001836118c9565b85549091506000906113ad906001906118c9565b90508082146114125760008660000182815481106113cd576113cd611a54565b90600052602060002001549050808760000184815481106113f0576113f0611a54565b6000918252602080832090910192909255918252600188019052604090208390555b855486908061142357611423611c94565b600190038181906000526020600020016000905590558560010160008681526020019081526020016000206000905560019350505050610343565b6000915050610343565b604080516001600160f81b03198087166020830152851660218201526000602282018190526001600160e01b03198516602683015269ffffffffffffffffffff198416602a8301529101604051602081830303815290604052610c0790611caa565b60008383836040516020016114e193929190611c33565b6040516020818303038152906040528051906020012090509392505050565b60008281526002840160205260408120829055610dad848461153b565b600080808061152c8686611547565b909450925050505b9250929050565b60006103408383611326565b6000818152600283016020526040812054819080611576576115698585611581565b9250600091506115349050565b600192509050611534565b600081815260018301602052604081205461034090849084908490151584565b50805460008255906000526020600020908101906109a891905b808211156115cf57600081556001016115bb565b5090565b60005b838110156115ee5781810151838201526020016115d6565b50506000910152565b6000815180845261160f8160208601602086016115d3565b601f01601f19169290920160200192915050565b60208152600061034060208301846115f7565b60008083601f84011261164857600080fd5b50813567ffffffffffffffff81111561166057600080fd5b60208301915083602082850101111561153457600080fd5b6000806020838503121561168b57600080fd5b823567ffffffffffffffff8111156116a257600080fd5b6116ae85828601611636565b90969095509350505050565b80356001600160a01b03811681146116d157600080fd5b919050565b6000806000604084860312156116eb57600080fd5b6116f4846116ba565b9250602084013567ffffffffffffffff81111561171057600080fd5b61171c86828701611636565b9497909650939450505050565b60008060008060006080868803121561174157600080fd5b61174a866116ba565b9450611758602087016116ba565b935060408601359250606086013567ffffffffffffffff81111561177b57600080fd5b61178788828901611636565b969995985093965092949392505050565b600080600080606085870312156117ae57600080fd5b6117b7856116ba565b935060208501359250604085013567ffffffffffffffff8111156117da57600080fd5b6117e687828801611636565b95989497509550505050565b6000806040838503121561180557600080fd5b61180e836116ba565b915061181c602084016116ba565b90509250929050565b60006020828403121561183757600080fd5b610340826116ba565b60006020828403121561185257600080fd5b5035919050565b6000808585111561186957600080fd5b8386111561187657600080fd5b5050820193919092039150565b6001600160e01b031981358181169160048510156118ab5780818660040360031b1b83161692505b505092915050565b634e487b7160e01b600052601160045260246000fd5b81810381811115610343576103436118b3565b8035602083101561034357600019602084900360031b1b1692915050565b80820180821115610343576103436118b3565b6bffffffffffffffffffffffff1981358181169160148510156118ab5760149490940360031b84901b1690921692915050565b634e487b7160e01b600052604160045260246000fd5b604051601f8201601f1916810167ffffffffffffffff8111828210171561197f5761197f611940565b604052919050565b600067ffffffffffffffff8211156119a1576119a1611940565b5060051b60200190565b600080604083850312156119be57600080fd5b8235915060208084013567ffffffffffffffff8111156119dd57600080fd5b8401601f810186136119ee57600080fd5b8035611a016119fc82611987565b611956565b81815260059190911b82018301908381019088831115611a2057600080fd5b928401925b82841015611a4557611a36846116ba565b82529284019290840190611a25565b80955050505050509250929050565b634e487b7160e01b600052603260045260246000fd5b828152604060208201526000610dad60408301846115f7565b60006020808385031215611a9657600080fd5b825167ffffffffffffffff80821115611aae57600080fd5b8185019150601f86601f840112611ac457600080fd5b8251611ad26119fc82611987565b81815260059190911b84018501908581019089831115611af157600080fd5b8686015b83811015611b7a57805186811115611b0d5760008081fd5b8701603f81018c13611b1f5760008081fd5b88810151604088821115611b3557611b35611940565b611b46828901601f19168c01611956565b8281528e82848601011115611b5b5760008081fd5b611b6a838d83018487016115d3565b8652505050918701918701611af5565b509998505050505050505050565b600060018201611b9a57611b9a6118b3565b5060010190565b81835281816020850137506000828201602090810191909152601f909101601f19169091010190565b848152606060208201526000611be4606083018587611ba1565b905082604083015295945050505050565b858152608060208201526000611c0f608083018688611ba1565b604083019490945250606001529392505050565b8183823760009101908152919050565b6bffffffffffffffffffffffff198460601b16815282601482015260008251611c638160348501602087016115d3565b91909101603401949350505050565b600060208284031215611c8457600080fd5b815180151581146104f557600080fd5b634e487b7160e01b600052603160045260246000fd5b80516020808301519190811015611ccb576000198160200360031b1b821691505b5091905056fea26469706673582212209098c1c7648c51687874cb0882ba986b513a396d94a0fc3b0aa3b4efb9a198b264736f6c63430008180033",
  "linkReferences": {},
  "deployedLinkReferences": {}
}