{
  "_format": "hh-sol-artifact-1",
  "contractName": "DelayedExecution",
  "sourceName": "src/execution/DelayedExecution.sol",
  "abi": [
    {
      "inputs": [
        {
          "internalType": "address",
          "name": "_owner",
          "type": "address"
        },
        {
          "internalType": "uint256",
          "name": "_minExecCooldown",
          "type": "uint256"
        }
      ],
      "stateMutability": "nonpayable",
      "type": "constructor"
    },
    {
      "inputs": [
        {
          "internalType": "address",
          "name": "smartAccount",
          "type": "address"
        }
      ],
      "name": "AlreadyInitialized",
      "type": "error"
    },
    {
      "inputs": [],
      "name": "ExecutionNotAuthorized",
      "type": "error"
    },
    {
      "inputs": [],
      "name": "HookInvalidSelector",
      "type": "error"
    },
    {
      "inputs": [],
      "name": "InvalidConfig",
      "type": "error"
    },
    {
      "inputs": [
        {
          "internalType": "bytes32",
          "name": "executionHash",
          "type": "bytes32"
        }
      ],
      "name": "InvalidExecutionHash",
      "type": "error"
    },
    {
      "inputs": [
        {
          "internalType": "address",
          "name": "smartAccount",
          "type": "address"
        }
      ],
      "name": "NotInitialized",
      "type": "error"
    },
    {
      "inputs": [
        {
          "internalType": "address",
          "name": "owner",
          "type": "address"
        }
      ],
      "name": "OwnableInvalidOwner",
      "type": "error"
    },
    {
      "inputs": [
        {
          "internalType": "address",
          "name": "account",
          "type": "address"
        }
      ],
      "name": "OwnableUnauthorizedAccount",
      "type": "error"
    },
    {
      "inputs": [],
      "name": "UnsupportedExecution",
      "type": "error"
    },
    {
      "anonymous": false,
      "inputs": [
        {
          "indexed": true,
          "internalType": "address",
          "name": "smartAccount",
          "type": "address"
        },
        {
          "indexed": true,
          "internalType": "address",
          "name": "target",
          "type": "address"
        },
        {
          "indexed": false,
          "internalType": "uint256",
          "name": "value",
          "type": "uint256"
        },
        {
          "indexed": false,
          "internalType": "bytes",
          "name": "callData",
          "type": "bytes"
        },
        {
          "indexed": false,
          "internalType": "uint256",
          "name": "createdAt",
          "type": "uint256"
        },
        {
          "indexed": false,
          "internalType": "uint256",
          "name": "nonce",
          "type": "uint256"
        }
      ],
      "name": "ExecutionInitiated",
      "type": "event"
    },
    {
      "anonymous": false,
      "inputs": [
        {
          "indexed": true,
          "internalType": "address",
          "name": "smartAccount",
          "type": "address"
        },
        {
          "indexed": true,
          "internalType": "address",
          "name": "target",
          "type": "address"
        },
        {
          "indexed": false,
          "internalType": "uint256",
          "name": "value",
          "type": "uint256"
        },
        {
          "indexed": false,
          "internalType": "bytes",
          "name": "callData",
          "type": "bytes"
        },
        {
          "indexed": false,
          "internalType": "uint256",
          "name": "nonce",
          "type": "uint256"
        }
      ],
      "name": "ExecutionSkipped",
      "type": "event"
    },
    {
      "anonymous": false,
      "inputs": [
        {
          "indexed": true,
          "internalType": "address",
          "name": "smartAccount",
          "type": "address"
        },
        {
          "indexed": true,
          "internalType": "address",
          "name": "target",
          "type": "address"
        },
        {
          "indexed": false,
          "internalType": "uint256",
          "name": "value",
          "type": "uint256"
        },
        {
          "indexed": false,
          "internalType": "bytes",
          "name": "callData",
          "type": "bytes"
        },
        {
          "indexed": false,
          "internalType": "uint256",
          "name": "nonce",
          "type": "uint256"
        }
      ],
      "name": "ExecutionSubmitted",
      "type": "event"
    },
    {
      "anonymous": false,
      "inputs": [
        {
          "indexed": true,
          "internalType": "address",
          "name": "previousOwner",
          "type": "address"
        },
        {
          "indexed": true,
          "internalType": "address",
          "name": "newOwner",
          "type": "address"
        }
      ],
      "name": "OwnershipTransferred",
      "type": "event"
    },
    {
      "inputs": [
        {
          "internalType": "address",
          "name": "_account",
          "type": "address"
        },
        {
          "internalType": "address",
          "name": "_target",
          "type": "address"
        },
        {
          "internalType": "uint256",
          "name": "_value",
          "type": "uint256"
        },
        {
          "internalType": "bytes",
          "name": "_callData",
          "type": "bytes"
        }
      ],
      "name": "execute",
      "outputs": [],
      "stateMutability": "payable",
      "type": "function"
    },
    {
      "inputs": [
        {
          "internalType": "address",
          "name": "_account",
          "type": "address"
        }
      ],
      "name": "hasPendingExecution",
      "outputs": [
        {
          "internalType": "bool",
          "name": "",
          "type": "bool"
        }
      ],
      "stateMutability": "view",
      "type": "function"
    },
    {
      "inputs": [
        {
          "internalType": "address",
          "name": "_target",
          "type": "address"
        },
        {
          "internalType": "uint256",
          "name": "_value",
          "type": "uint256"
        },
        {
          "internalType": "bytes",
          "name": "_callData",
          "type": "bytes"
        }
      ],
      "name": "initExecution",
      "outputs": [],
      "stateMutability": "nonpayable",
      "type": "function"
    },
    {
      "inputs": [
        {
          "internalType": "address",
          "name": "_account",
          "type": "address"
        }
      ],
      "name": "isInitialized",
      "outputs": [
        {
          "internalType": "bool",
          "name": "",
          "type": "bool"
        }
      ],
      "stateMutability": "view",
      "type": "function"
    },
    {
      "inputs": [
        {
          "internalType": "uint256",
          "name": "typeID",
          "type": "uint256"
        }
      ],
      "name": "isModuleType",
      "outputs": [
        {
          "internalType": "bool",
          "name": "",
          "type": "bool"
        }
      ],
      "stateMutability": "pure",
      "type": "function"
    },
    {
      "inputs": [
        {
          "internalType": "address",
          "name": "_account",
          "type": "address"
        },
        {
          "internalType": "address",
          "name": "_target",
          "type": "address"
        }
      ],
      "name": "isWhitelisted",
      "outputs": [
        {
          "internalType": "bool",
          "name": "",
          "type": "bool"
        }
      ],
      "stateMutability": "view",
      "type": "function"
    },
    {
      "inputs": [],
      "name": "minExecCooldown",
      "outputs": [
        {
          "internalType": "uint256",
          "name": "",
          "type": "uint256"
        }
      ],
      "stateMutability": "view",
      "type": "function"
    },
    {
      "inputs": [],
      "name": "name",
      "outputs": [
        {
          "internalType": "string",
          "name": "",
          "type": "string"
        }
      ],
      "stateMutability": "pure",
      "type": "function"
    },
    {
      "inputs": [
        {
          "internalType": "bytes",
          "name": "data",
          "type": "bytes"
        }
      ],
      "name": "onInstall",
      "outputs": [],
      "stateMutability": "nonpayable",
      "type": "function"
    },
    {
      "inputs": [
        {
          "internalType": "bytes",
          "name": "",
          "type": "bytes"
        }
      ],
      "name": "onUninstall",
      "outputs": [],
      "stateMutability": "nonpayable",
      "type": "function"
    },
    {
      "inputs": [],
      "name": "owner",
      "outputs": [
        {
          "internalType": "address",
          "name": "",
          "type": "address"
        }
      ],
      "stateMutability": "view",
      "type": "function"
    },
    {
      "inputs": [
        {
          "internalType": "bytes",
          "name": "hookData",
          "type": "bytes"
        }
      ],
      "name": "postCheck",
      "outputs": [
        {
          "internalType": "bool",
          "name": "success",
          "type": "bool"
        }
      ],
      "stateMutability": "nonpayable",
      "type": "function"
    },
    {
      "inputs": [
        {
          "internalType": "address",
          "name": "msgSender",
          "type": "address"
        },
        {
          "internalType": "bytes",
          "name": "msgData",
          "type": "bytes"
        }
      ],
      "name": "preCheck",
      "outputs": [
        {
          "internalType": "bytes",
          "name": "hookData",
          "type": "bytes"
        }
      ],
      "stateMutability": "nonpayable",
      "type": "function"
    },
    {
      "inputs": [],
      "name": "renounceOwnership",
      "outputs": [],
      "stateMutability": "nonpayable",
      "type": "function"
    },
    {
      "inputs": [
        {
          "internalType": "uint256",
          "name": "_minExecCooldown",
          "type": "uint256"
        }
      ],
      "name": "setMinExecCooldown",
      "outputs": [],
      "stateMutability": "nonpayable",
      "type": "function"
    },
    {
      "inputs": [
        {
          "internalType": "address",
          "name": "_target",
          "type": "address"
        },
        {
          "internalType": "uint256",
          "name": "_value",
          "type": "uint256"
        },
        {
          "internalType": "bytes",
          "name": "_callData",
          "type": "bytes"
        }
      ],
      "name": "skipExecution",
      "outputs": [],
      "stateMutability": "nonpayable",
      "type": "function"
    },
    {
      "inputs": [
        {
          "internalType": "address",
          "name": "newOwner",
          "type": "address"
        }
      ],
      "name": "transferOwnership",
      "outputs": [],
      "stateMutability": "nonpayable",
      "type": "function"
    },
    {
      "inputs": [],
      "name": "version",
      "outputs": [
        {
          "internalType": "string",
          "name": "",
          "type": "string"
        }
      ],
      "stateMutability": "pure",
      "type": "function"
    }
  ],
  "bytecode": "0x608060405234801561001057600080fd5b5060405161351038038061351083398181016040528101906100329190610220565b81600073ffffffffffffffffffffffffffffffffffffffff168173ffffffffffffffffffffffffffffffffffffffff16036100a55760006040517f1e4fbdf700000000000000000000000000000000000000000000000000000000815260040161009c919061026f565b60405180910390fd5b6100b4816100c360201b60201c565b5080600181905550505061028a565b60008060009054906101000a900473ffffffffffffffffffffffffffffffffffffffff169050816000806101000a81548173ffffffffffffffffffffffffffffffffffffffff021916908373ffffffffffffffffffffffffffffffffffffffff1602179055508173ffffffffffffffffffffffffffffffffffffffff168173ffffffffffffffffffffffffffffffffffffffff167f8be0079c531659141344cd1fd0a4f28419497f9722a3daafe3b4186f6b6457e060405160405180910390a35050565b600080fd5b600073ffffffffffffffffffffffffffffffffffffffff82169050919050565b60006101b78261018c565b9050919050565b6101c7816101ac565b81146101d257600080fd5b50565b6000815190506101e4816101be565b92915050565b6000819050919050565b6101fd816101ea565b811461020857600080fd5b50565b60008151905061021a816101f4565b92915050565b6000806040838503121561023757610236610187565b5b6000610245858286016101d5565b92505060206102568582860161020b565b9150509250929050565b610269816101ac565b82525050565b60006020820190506102846000830184610260565b92915050565b613277806102996000396000f3fe6080604052600436106101095760003560e01c80639d09b8e611610095578063d60b347f11610064578063d60b347f14610348578063dea9de5014610385578063e9062777146103c2578063ecd05961146103eb578063f2fde38b1461042857610109565b80639d09b8e61461028e578063b6b35272146102b7578063c5d518d3146102f4578063cd23f7291461031d57610109565b80636d61fe70116100dc5780636d61fe70146101de578063715018a6146102075780638a91b0e31461021e5780638da5cb5b146102475780639aefaff81461027257610109565b806306fdde031461010e578063173bf7da1461013957806320af8e9a1461017657806354fd4d50146101b3575b600080fd5b34801561011a57600080fd5b50610123610451565b60405161013091906122df565b60405180910390f35b34801561014557600080fd5b50610160600480360381019061015b919061237a565b61048e565b60405161016d91906123e2565b60405180910390f35b34801561018257600080fd5b5061019d6004803603810190610198919061245b565b6104b6565b6040516101aa9190612510565b60405180910390f35b3480156101bf57600080fd5b506101c86107b9565b6040516101d591906122df565b60405180910390f35b3480156101ea57600080fd5b506102056004803603810190610200919061237a565b6107f6565b005b34801561021357600080fd5b5061021c6108e6565b005b34801561022a57600080fd5b506102456004803603810190610240919061237a565b6108fa565b005b34801561025357600080fd5b5061025c610966565b6040516102699190612541565b60405180910390f35b61028c60048036038101906102879190612592565b61098f565b005b34801561029a57600080fd5b506102b560048036038101906102b0919061261a565b610a6f565b005b3480156102c357600080fd5b506102de60048036038101906102d9919061268e565b610c8f565b6040516102eb91906123e2565b60405180910390f35b34801561030057600080fd5b5061031b6004803603810190610316919061261a565b610ced565b005b34801561032957600080fd5b50610332610f8c565b60405161033f91906126dd565b60405180910390f35b34801561035457600080fd5b5061036f600480360381019061036a91906126f8565b610f92565b60405161037c91906123e2565b60405180910390f35b34801561039157600080fd5b506103ac60048036038101906103a791906126f8565b610fe1565b6040516103b991906123e2565b60405180910390f35b3480156103ce57600080fd5b506103e960048036038101906103e49190612725565b61106b565b005b3480156103f757600080fd5b50610412600480360381019061040d9190612725565b61107d565b60405161041f91906123e2565b60405180910390f35b34801561043457600080fd5b5061044f600480360381019061044a91906126f8565b611095565b005b60606040518060400160405280601081526020017f44656c61796564457865637574696f6e00000000000000000000000000000000815250905090565b60008083839050036104a357600190506104b0565b6104ad838361111b565b90505b92915050565b6060600083836000906004926104ce9392919061275c565b906104d991906127db565b905063e9ae5c5360e01b7bffffffffffffffffffffffffffffffffffffffffffffffffffffffff1916817bffffffffffffffffffffffffffffffffffffffffffffffffffffffff19160361053a57610532858585611195565b9150506107b2565b63d691c96460e01b7bffffffffffffffffffffffffffffffffffffffffffffffffffffffff1916817bffffffffffffffffffffffffffffffffffffffffffffffffffffffff191603610599576105918585856112b1565b9150506107b2565b639517e29f60e01b7bffffffffffffffffffffffffffffffffffffffffffffffffffffffff1916817bffffffffffffffffffffffffffffffffffffffffffffffffffffffff1916036106a35760008484602060846105f79190612869565b906084926106079392919061275c565b9061061291906128a7565b60001c9050366000868660849085608461062c9190612906565b926106399392919061275c565b91509150600087876004906024926106539392919061275c565b9061065e91906128a7565b60001c9050600088886030906044926106799392919061275c565b906106849190612966565b60601c90506106968a838387876113cd565b96505050505050506107b2565b63a71763a860e01b7bffffffffffffffffffffffffffffffffffffffffffffffffffffffff1916817bffffffffffffffffffffffffffffffffffffffffffffffffffffffff1916036107ad5760008484602060846107019190612869565b906084926107119392919061275c565b9061071c91906128a7565b60001c905036600086866084908560846107369190612906565b926107439392919061275c565b915091506000878760049060249261075d9392919061275c565b9061076891906128a7565b60001c9050600088886030906044926107839392919061275c565b9061078e9190612966565b60601c90506107a08a8383878761141a565b96505050505050506107b2565b600080fd5b9392505050565b60606040518060400160405280600581526020017f302e302e31000000000000000000000000000000000000000000000000000000815250905090565b6000600260003373ffffffffffffffffffffffffffffffffffffffff1673ffffffffffffffffffffffffffffffffffffffff1681526020019081526020016000209050600080848481019061084b9190612b03565b9150915060015482101561088b576040517f35be3ac800000000000000000000000000000000000000000000000000000000815260040160405180910390fd5b81836000018190555060005b81518110156108de576108d08282815181106108b6576108b5612b5f565b5b60200260200101518560010161146790919063ffffffff16565b508080600101915050610897565b505050505050565b6108ee611497565b6108f8600061151e565b565b600260003373ffffffffffffffffffffffffffffffffffffffff1673ffffffffffffffffffffffffffffffffffffffff1681526020019081526020016000206000808201600090556001820160008082016000808201600061095c9190612211565b5050505050505050565b60008060009054906101000a900473ffffffffffffffffffffffffffffffffffffffff16905090565b8473ffffffffffffffffffffffffffffffffffffffff1663d691c9646109b36115e2565b610a02878787878080601f016020809104026020016040519081016040528093929190818152602001838380828437600081840152601f19601f82011690508083019250505050505050611605565b6040518363ffffffff1660e01b8152600401610a1f929190612baf565b6000604051808303816000875af1158015610a3e573d6000803e3d6000fd5b505050506040513d6000823e3d601f19601f82011682018060405250810190610a679190612d66565b505050505050565b3073ffffffffffffffffffffffffffffffffffffffff1663d60b347f336040518263ffffffff1660e01b8152600401610aa89190612541565b602060405180830381865afa158015610ac5573d6000803e3d6000fd5b505050506040513d601f19601f82011682018060405250810190610ae99190612ddb565b610b1f576040517f35be3ac800000000000000000000000000000000000000000000000000000000815260040160405180910390fd5b6000610b2d85858585611634565b905060006006600083815260200190815260200160002054905060008103610b8c57816040517fdb5d09aa000000000000000000000000000000000000000000000000000000008152600401610b839190612e17565b60405180910390fd5b6000600460003373ffffffffffffffffffffffffffffffffffffffff1673ffffffffffffffffffffffffffffffffffffffff16815260200190815260200160002060008154610bda90612e32565b9190508190559050808214610c1b576040517fce2906b900000000000000000000000000000000000000000000000000000000815260040160405180910390fd5b8673ffffffffffffffffffffffffffffffffffffffff163373ffffffffffffffffffffffffffffffffffffffff167f133fae9f43d622ff1cddce135292eea35a678444b651fd808a6f7e7e6c293b0c88888887604051610c7e9493929190612eb6565b60405180910390a350505050505050565b6000610ce582600260008673ffffffffffffffffffffffffffffffffffffffff1673ffffffffffffffffffffffffffffffffffffffff16815260200190815260200160002060010161169490919063ffffffff16565b905092915050565b3073ffffffffffffffffffffffffffffffffffffffff1663d60b347f336040518263ffffffff1660e01b8152600401610d269190612541565b602060405180830381865afa158015610d43573d6000803e3d6000fd5b505050506040513d601f19601f82011682018060405250810190610d679190612ddb565b610d9d576040517f35be3ac800000000000000000000000000000000000000000000000000000000815260040160405180910390fd5b6000610dab85858585611634565b905060004290506000600460003373ffffffffffffffffffffffffffffffffffffffff1673ffffffffffffffffffffffffffffffffffffffff16815260200190815260200160002054905060006006600085815260200190815260200160002054905060008114158015610e1e57508181115b15610e55576040517fce2906b900000000000000000000000000000000000000000000000000000000815260040160405180910390fd5b610ea88484600360003373ffffffffffffffffffffffffffffffffffffffff1673ffffffffffffffffffffffffffffffffffffffff1681526020019081526020016000206116c49092919063ffffffff16565b50600560003373ffffffffffffffffffffffffffffffffffffffff1673ffffffffffffffffffffffffffffffffffffffff16815260200190815260200160002060008154610ef590612e32565b91905081905590508060066000868152602001908152602001600020819055508773ffffffffffffffffffffffffffffffffffffffff163373ffffffffffffffffffffffffffffffffffffffff167f4150b93a9e011e237189c00e832a6b188b252e6c6fb805ca427d8c8de0c240fa8989898887604051610f7a959493929190612ef6565b60405180910390a35050505050505050565b60015481565b600080600260008473ffffffffffffffffffffffffffffffffffffffff1673ffffffffffffffffffffffffffffffffffffffff1681526020019081526020016000206000015414159050919050565b6000600460008373ffffffffffffffffffffffffffffffffffffffff1673ffffffffffffffffffffffffffffffffffffffff16815260200190815260200160002054600560008473ffffffffffffffffffffffffffffffffffffffff1673ffffffffffffffffffffffffffffffffffffffff16815260200190815260200160002054119050919050565b611073611497565b8060018190555050565b6000600482148061108e5750600282145b9050919050565b61109d611497565b600073ffffffffffffffffffffffffffffffffffffffff168173ffffffffffffffffffffffffffffffffffffffff160361110f5760006040517f1e4fbdf70000000000000000000000000000000000000000000000000000000081526004016111069190612541565b60405180910390fd5b6111188161151e565b50565b60007fd26794af0798dbe415d32ab1faaa2c70b478f538bf66eea16fc0e275c435009560405160200161114e9190612e17565b604051602081830303815290604052805190602001208383604051611174929190612f74565b60405180910390200361118a576001905061118f565b600090505b92915050565b606060008383602060646111a99190612869565b906064926111b99392919061275c565b906111c491906128a7565b60001c905036600085856064908560646111de9190612906565b926111eb9392919061275c565b91509150600086866004906024926112059392919061275c565b9061121091906128a7565b9050600061121d826116e0565b905061122d81600060f81b6116ea565b1561126757600080366000611242888861173b565b93509350935093506112578d858585856117a9565b99505050505050505050506112aa565b61127581600160f81b6116ea565b156112a4573660006112878686611a38565b915091506112968b8383611a51565b9750505050505050506112aa565b50505050505b9392505050565b606060008383602060646112c59190612869565b906064926112d59392919061275c565b906112e091906128a7565b60001c905036600085856064908560646112fa9190612906565b926113079392919061275c565b91509150600086866004906024926113219392919061275c565b9061132c91906128a7565b90506000611339826116e0565b905061134981600060f81b6116ea565b156113835760008036600061135e888861173b565b93509350935093506113738d85858585611a85565b99505050505050505050506113c6565b61139181600160f81b6116ea565b156113c0573660006113a38686611a38565b915091506113b28b8383611fca565b9750505050505050506113c6565b50505050505b9392505050565b60607fd26794af0798dbe415d32ab1faaa2c70b478f538bf66eea16fc0e275c43500956040516020016114009190612e17565b604051602081830303815290604052905095945050505050565b60607fd26794af0798dbe415d32ab1faaa2c70b478f538bf66eea16fc0e275c435009560405160200161144d9190612e17565b604051602081830303815290604052905095945050505050565b600061148f836000018373ffffffffffffffffffffffffffffffffffffffff1660001b611ffe565b905092915050565b61149f61206e565b73ffffffffffffffffffffffffffffffffffffffff166114bd610966565b73ffffffffffffffffffffffffffffffffffffffff161461151c576114e061206e565b6040517f118cdaa70000000000000000000000000000000000000000000000000000000081526004016115139190612541565b60405180910390fd5b565b60008060009054906101000a900473ffffffffffffffffffffffffffffffffffffffff169050816000806101000a81548173ffffffffffffffffffffffffffffffffffffffff021916908373ffffffffffffffffffffffffffffffffffffffff1602179055508173ffffffffffffffffffffffffffffffffffffffff168173ffffffffffffffffffffffffffffffffffffffff167f8be0079c531659141344cd1fd0a4f28419497f9722a3daafe3b4186f6b6457e060405160405180910390a35050565b6000611600600060f81b600060f81b600060e01b600060501b612076565b905090565b606083838360405160200161161c93929190613027565b60405160208183030381529060405290509392505050565b60008083838080601f016020809104026020016040519081016040528093929190818152602001838380828437600081840152601f19601f8201169050808301925050505050505090506116898686836120b7565b915050949350505050565b60006116bc836000018373ffffffffffffffffffffffffffffffffffffffff1660001b6120ed565b905092915050565b60006116d784600001848460001b612110565b90509392505050565b6000819050919050565b6000817effffffffffffffffffffffffffffffffffffffffffffffffffffffffffffff1916837effffffffffffffffffffffffffffffffffffffffffffffffffffffffffffff191614905092915050565b60008036600085856000906014926117559392919061275c565b906117609190612966565b60601c935085856014906034926117799392919061275c565b9061178491906128a7565b60001c92508585603490809261179c9392919061275c565b9150915092959194509250565b60603073ffffffffffffffffffffffffffffffffffffffff1663d60b347f336040518263ffffffff1660e01b81526004016117e49190612541565b602060405180830381865afa158015611801573d6000803e3d6000fd5b505050506040513d601f19601f820116820180604052508101906118259190612ddb565b61185b576040517f35be3ac800000000000000000000000000000000000000000000000000000000815260040160405180910390fd5b60006004848490501061188a57838360009060049261187c9392919061275c565b9061188791906127db565b90505b3073ffffffffffffffffffffffffffffffffffffffff168673ffffffffffffffffffffffffffffffffffffffff161480156119095750639aefaff860e01b7bffffffffffffffffffffffffffffffffffffffffffffffffffffffff1916817bffffffffffffffffffffffffffffffffffffffffffffffffffffffff1916145b15611956577fd26794af0798dbe415d32ab1faaa2c70b478f538bf66eea16fc0e275c435009560405160200161193f9190612e17565b604051602081830303815290604052915050611a2f565b6000600260003373ffffffffffffffffffffffffffffffffffffffff1673ffffffffffffffffffffffffffffffffffffffff16815260200190815260200160002090506119af878260010161169490919063ffffffff16565b156119fd577fd26794af0798dbe415d32ab1faaa2c70b478f538bf66eea16fc0e275c43500956040516020016119e59190612e17565b60405160208183030381529060405292505050611a2f565b6040517fce2906b900000000000000000000000000000000000000000000000000000000815260040160405180910390fd5b95945050505050565b3660008335840160208101925080359150509250929050565b60606040517f226f153d00000000000000000000000000000000000000000000000000000000815260040160405180910390fd5b60603073ffffffffffffffffffffffffffffffffffffffff1663d60b347f336040518263ffffffff1660e01b8152600401611ac09190612541565b602060405180830381865afa158015611add573d6000803e3d6000fd5b505050506040513d601f19601f82011682018060405250810190611b019190612ddb565b611b37576040517f35be3ac800000000000000000000000000000000000000000000000000000000815260040160405180910390fd5b600060048484905010611b66578383600090600492611b589392919061275c565b90611b6391906127db565b90505b6000600260003373ffffffffffffffffffffffffffffffffffffffff1673ffffffffffffffffffffffffffffffffffffffff16815260200190815260200160002090503073ffffffffffffffffffffffffffffffffffffffff168773ffffffffffffffffffffffffffffffffffffffff16148015611c77575063c5d518d360e01b7bffffffffffffffffffffffffffffffffffffffffffffffffffffffff1916827bffffffffffffffffffffffffffffffffffffffffffffffffffffffff19161480611c765750639d09b8e660e01b7bffffffffffffffffffffffffffffffffffffffffffffffffffffffff1916827bffffffffffffffffffffffffffffffffffffffffffffffffffffffff1916145b5b15611cc5577fd26794af0798dbe415d32ab1faaa2c70b478f538bf66eea16fc0e275c4350095604051602001611cad9190612e17565b60405160208183030381529060405292505050611fc1565b611cdb878260010161169490919063ffffffff16565b15611d29577fd26794af0798dbe415d32ab1faaa2c70b478f538bf66eea16fc0e275c4350095604051602001611d119190612e17565b60405160208183030381529060405292505050611fc1565b6000611d7a888888888080601f016020809104026020016040519081016040528093929190818152602001838380828437600081840152601f19601f820116905080830192505050505050506120b7565b9050600080611dd083600360003373ffffffffffffffffffffffffffffffffffffffff1673ffffffffffffffffffffffffffffffffffffffff16815260200190815260200160002061214b90919063ffffffff16565b9150915081611e1657826040517fdb5d09aa000000000000000000000000000000000000000000000000000000008152600401611e0d9190612e17565b60405180910390fd5b6000600460003373ffffffffffffffffffffffffffffffffffffffff1673ffffffffffffffffffffffffffffffffffffffff16815260200190815260200160002060008154611e6490612e32565b9190508190559050600060066000868152602001908152602001600020549050818114611ebd576040517fce2906b900000000000000000000000000000000000000000000000000000000815260040160405180910390fd5b6000866000015484611ecf9190612906565b905042811115611f0b576040517fce2906b900000000000000000000000000000000000000000000000000000000815260040160405180910390fd5b8c73ffffffffffffffffffffffffffffffffffffffff163373ffffffffffffffffffffffffffffffffffffffff167f310f720156d6fdb5f56799d07e3bd9042a92b6c5818f96a006a812a7e60d7d958e8e8e87604051611f6e9493929190612eb6565b60405180910390a37fd26794af0798dbe415d32ab1faaa2c70b478f538bf66eea16fc0e275c4350095604051602001611fa79190612e17565b604051602081830303815290604052985050505050505050505b95945050505050565b60606040517f226f153d00000000000000000000000000000000000000000000000000000000815260040160405180910390fd5b600061200a83836120ed565b612063578260000182908060018154018082558091505060019003906000526020600020016000909190919091505582600001805490508360010160008481526020019081526020016000208190555060019050612068565b600090505b92915050565b600033905090565b60008484600060e01b8585604051602001612095959493929190613156565b6040516020818303038152906040526120ad906131da565b9050949350505050565b60008383836040516020016120ce93929190613027565b6040516020818303038152906040528051906020012090509392505050565b600080836001016000848152602001908152602001600020541415905092915050565b60008184600201600085815260200190815260200160002081905550612142838560000161217490919063ffffffff16565b90509392505050565b60008060008061215e866000018661218b565b91509150818160001c9350935050509250929050565b60006121838360000183611ffe565b905092915050565b60008060008460020160008581526020019081526020016000205490506000801b81036121ca576121bc85856121da565b6000801b92509250506121d3565b60018192509250505b9250929050565b60006121f282846000016121fa90919063ffffffff16565b905092915050565b600061220983600001836120ed565b905092915050565b508054600082559060005260206000209081019061222f9190612232565b50565b5b8082111561224b576000816000905550600101612233565b5090565b600081519050919050565b600082825260208201905092915050565b60005b8381101561228957808201518184015260208101905061226e565b60008484015250505050565b6000601f19601f8301169050919050565b60006122b18261224f565b6122bb818561225a565b93506122cb81856020860161226b565b6122d481612295565b840191505092915050565b600060208201905081810360008301526122f981846122a6565b905092915050565b6000604051905090565b600080fd5b600080fd5b600080fd5b600080fd5b600080fd5b60008083601f84011261233a57612339612315565b5b8235905067ffffffffffffffff8111156123575761235661231a565b5b6020830191508360018202830111156123735761237261231f565b5b9250929050565b600080602083850312156123915761239061230b565b5b600083013567ffffffffffffffff8111156123af576123ae612310565b5b6123bb85828601612324565b92509250509250929050565b60008115159050919050565b6123dc816123c7565b82525050565b60006020820190506123f760008301846123d3565b92915050565b600073ffffffffffffffffffffffffffffffffffffffff82169050919050565b6000612428826123fd565b9050919050565b6124388161241d565b811461244357600080fd5b50565b6000813590506124558161242f565b92915050565b6000806000604084860312156124745761247361230b565b5b600061248286828701612446565b935050602084013567ffffffffffffffff8111156124a3576124a2612310565b5b6124af86828701612324565b92509250509250925092565b600081519050919050565b600082825260208201905092915050565b60006124e2826124bb565b6124ec81856124c6565b93506124fc81856020860161226b565b61250581612295565b840191505092915050565b6000602082019050818103600083015261252a81846124d7565b905092915050565b61253b8161241d565b82525050565b60006020820190506125566000830184612532565b92915050565b6000819050919050565b61256f8161255c565b811461257a57600080fd5b50565b60008135905061258c81612566565b92915050565b6000806000806000608086880312156125ae576125ad61230b565b5b60006125bc88828901612446565b95505060206125cd88828901612446565b94505060406125de8882890161257d565b935050606086013567ffffffffffffffff8111156125ff576125fe612310565b5b61260b88828901612324565b92509250509295509295909350565b600080600080606085870312156126345761263361230b565b5b600061264287828801612446565b94505060206126538782880161257d565b935050604085013567ffffffffffffffff81111561267457612673612310565b5b61268087828801612324565b925092505092959194509250565b600080604083850312156126a5576126a461230b565b5b60006126b385828601612446565b92505060206126c485828601612446565b9150509250929050565b6126d78161255c565b82525050565b60006020820190506126f260008301846126ce565b92915050565b60006020828403121561270e5761270d61230b565b5b600061271c84828501612446565b91505092915050565b60006020828403121561273b5761273a61230b565b5b60006127498482850161257d565b91505092915050565b600080fd5b600080fd5b600080858511156127705761276f612752565b5b8386111561278157612780612757565b5b6001850283019150848603905094509492505050565b600082905092915050565b60007fffffffff0000000000000000000000000000000000000000000000000000000082169050919050565b600082821b905092915050565b60006127e78383612797565b826127f281356127a2565b925060048210156128325761282d7fffffffff00000000000000000000000000000000000000000000000000000000836004036008026127ce565b831692505b505092915050565b7f4e487b7100000000000000000000000000000000000000000000000000000000600052601160045260246000fd5b60006128748261255c565b915061287f8361255c565b92508282039050818111156128975761289661283a565b5b92915050565b6000819050919050565b60006128b38383612797565b826128be813561289d565b925060208210156128fe576128f97fffffffffffffffffffffffffffffffffffffffffffffffffffffffffffffffff836020036008026127ce565b831692505b505092915050565b60006129118261255c565b915061291c8361255c565b92508282019050808211156129345761293361283a565b5b92915050565b60007fffffffffffffffffffffffffffffffffffffffff00000000000000000000000082169050919050565b60006129728383612797565b8261297d813561293a565b925060148210156129bd576129b87fffffffffffffffffffffffffffffffffffffffff000000000000000000000000836014036008026127ce565b831692505b505092915050565b7f4e487b7100000000000000000000000000000000000000000000000000000000600052604160045260246000fd5b6129fd82612295565b810181811067ffffffffffffffff82111715612a1c57612a1b6129c5565b5b80604052505050565b6000612a2f612301565b9050612a3b82826129f4565b919050565b600067ffffffffffffffff821115612a5b57612a5a6129c5565b5b602082029050602081019050919050565b6000612a7f612a7a84612a40565b612a25565b90508083825260208201905060208402830185811115612aa257612aa161231f565b5b835b81811015612acb5780612ab78882612446565b845260208401935050602081019050612aa4565b5050509392505050565b600082601f830112612aea57612ae9612315565b5b8135612afa848260208601612a6c565b91505092915050565b60008060408385031215612b1a57612b1961230b565b5b6000612b288582860161257d565b925050602083013567ffffffffffffffff811115612b4957612b48612310565b5b612b5585828601612ad5565b9150509250929050565b7f4e487b7100000000000000000000000000000000000000000000000000000000600052603260045260246000fd5b6000612b998261289d565b9050919050565b612ba981612b8e565b82525050565b6000604082019050612bc46000830185612ba0565b8181036020830152612bd681846124d7565b90509392505050565b600067ffffffffffffffff821115612bfa57612bf96129c5565b5b602082029050602081019050919050565b600080fd5b600067ffffffffffffffff821115612c2b57612c2a6129c5565b5b612c3482612295565b9050602081019050919050565b6000612c54612c4f84612c10565b612a25565b905082815260208101848484011115612c7057612c6f612c0b565b5b612c7b84828561226b565b509392505050565b600082601f830112612c9857612c97612315565b5b8151612ca8848260208601612c41565b91505092915050565b6000612cc4612cbf84612bdf565b612a25565b90508083825260208201905060208402830185811115612ce757612ce661231f565b5b835b81811015612d2e57805167ffffffffffffffff811115612d0c57612d0b612315565b5b808601612d198982612c83565b85526020850194505050602081019050612ce9565b5050509392505050565b600082601f830112612d4d57612d4c612315565b5b8151612d5d848260208601612cb1565b91505092915050565b600060208284031215612d7c57612d7b61230b565b5b600082015167ffffffffffffffff811115612d9a57612d99612310565b5b612da684828501612d38565b91505092915050565b612db8816123c7565b8114612dc357600080fd5b50565b600081519050612dd581612daf565b92915050565b600060208284031215612df157612df061230b565b5b6000612dff84828501612dc6565b91505092915050565b612e118161289d565b82525050565b6000602082019050612e2c6000830184612e08565b92915050565b6000612e3d8261255c565b91507fffffffffffffffffffffffffffffffffffffffffffffffffffffffffffffffff8203612e6f57612e6e61283a565b5b600182019050919050565b82818337600083830152505050565b6000612e9583856124c6565b9350612ea2838584612e7a565b612eab83612295565b840190509392505050565b6000606082019050612ecb60008301876126ce565b8181036020830152612ede818587612e89565b9050612eed60408301846126ce565b95945050505050565b6000608082019050612f0b60008301886126ce565b8181036020830152612f1e818688612e89565b9050612f2d60408301856126ce565b612f3a60608301846126ce565b9695505050505050565b600081905092915050565b6000612f5b8385612f44565b9350612f68838584612e7a565b82840190509392505050565b6000612f81828486612f4f565b91508190509392505050565b60008160601b9050919050565b6000612fa582612f8d565b9050919050565b6000612fb782612f9a565b9050919050565b612fcf612fca8261241d565b612fac565b82525050565b6000819050919050565b612ff0612feb8261255c565b612fd5565b82525050565b6000613001826124bb565b61300b8185612f44565b935061301b81856020860161226b565b80840191505092915050565b60006130338286612fbe565b6014820191506130438285612fdf565b6020820191506130538284612ff6565b9150819050949350505050565b60007fff0000000000000000000000000000000000000000000000000000000000000082169050919050565b600061309782613060565b9050919050565b6000819050919050565b6130b96130b48261308c565b61309e565b82525050565b6130d06130cb8261308c565b61309e565b82525050565b6000819050919050565b6130f16130ec826127a2565b6130d6565b82525050565b60007fffffffffffffffffffffffffffffffffffffffffffff0000000000000000000082169050919050565b600061312e826130f7565b9050919050565b6000819050919050565b61315061314b82613123565b613135565b82525050565b600061316282886130a8565b60018201915061317282876130bf565b60018201915061318282866130e0565b60048201915061319282856130e0565b6004820191506131a2828461313f565b6016820191508190509695505050505050565b6000819050602082019050919050565b60006131d1825161289d565b80915050919050565b60006131e5826124bb565b826131ef846131b5565b90506131fa816131c5565b9250602082101561323a576132357fffffffffffffffffffffffffffffffffffffffffffffffffffffffffffffffff836020036008026127ce565b831692505b505091905056fea264697066735822122024aa053f429618b696c3146b9fcd5fa6c7e06b87bfc643308f5530230f56145464736f6c63430008190033",
  "linkReferences": {},
  "deployedLinkReferences": {}
}