{
  "_format": "hh-sol-artifact-1",
  "contractName": "FiatPayment",
  "sourceName": "contracts/payment/FiatPayment.sol",
  "abi": [
    {
      "inputs": [
        {
          "internalType": "address",
          "name": "_owner",
          "type": "address"
        },
        {
          "internalType": "address[]",
          "name": "_initiallySupportedTokens",
          "type": "address[]"
        }
      ],
      "stateMutability": "nonpayable",
      "type": "constructor"
    },
    {
      "inputs": [
        {
          "internalType": "address",
          "name": "smartAccount",
          "type": "address"
        }
      ],
      "name": "AlreadyInitialized",
      "type": "error"
    },
    {
      "inputs": [],
      "name": "ArrayLengthMismatch",
      "type": "error"
    },
    {
      "inputs": [],
      "name": "ArrayLengthOfZero",
      "type": "error"
    },
    {
      "inputs": [],
      "name": "ERC20TransferFailed",
      "type": "error"
    },
    {
      "inputs": [],
      "name": "InsufficientAllowance",
      "type": "error"
    },
    {
      "inputs": [],
      "name": "InsufficientBalance",
      "type": "error"
    },
    {
      "inputs": [],
      "name": "InvalidConfig",
      "type": "error"
    },
    {
      "inputs": [
        {
          "internalType": "uint256",
          "name": "reservationId",
          "type": "uint256"
        }
      ],
      "name": "InvalidReservationId",
      "type": "error"
    },
    {
      "inputs": [],
      "name": "InvalidSplitAddressIncluded",
      "type": "error"
    },
    {
      "inputs": [
        {
          "internalType": "uint256",
          "name": "status",
          "type": "uint256"
        }
      ],
      "name": "InvalidStatus",
      "type": "error"
    },
    {
      "inputs": [],
      "name": "NewAmountGreaterThanOldAmount",
      "type": "error"
    },
    {
      "inputs": [],
      "name": "NewAmountLessThanOldAmount",
      "type": "error"
    },
    {
      "inputs": [
        {
          "internalType": "address",
          "name": "smartAccount",
          "type": "address"
        }
      ],
      "name": "NotInitialized",
      "type": "error"
    },
    {
      "inputs": [
        {
          "internalType": "address",
          "name": "owner",
          "type": "address"
        }
      ],
      "name": "OwnableInvalidOwner",
      "type": "error"
    },
    {
      "inputs": [
        {
          "internalType": "address",
          "name": "account",
          "type": "address"
        }
      ],
      "name": "OwnableUnauthorizedAccount",
      "type": "error"
    },
    {
      "inputs": [],
      "name": "ReservationNotCaptured",
      "type": "error"
    },
    {
      "inputs": [],
      "name": "ReservationNotPending",
      "type": "error"
    },
    {
      "inputs": [],
      "name": "ReservationNotReverted",
      "type": "error"
    },
    {
      "inputs": [],
      "name": "ReservationUnchanged",
      "type": "error"
    },
    {
      "inputs": [],
      "name": "UnauthorizedAccess",
      "type": "error"
    },
    {
      "inputs": [
        {
          "internalType": "address",
          "name": "token",
          "type": "address"
        }
      ],
      "name": "UnsupportedToken",
      "type": "error"
    },
    {
      "inputs": [],
      "name": "ZeroAddress",
      "type": "error"
    },
    {
      "inputs": [],
      "name": "ZeroAmount",
      "type": "error"
    },
    {
      "inputs": [],
      "name": "ZeroTokens",
      "type": "error"
    },
    {
      "anonymous": false,
      "inputs": [
        {
          "indexed": true,
          "internalType": "uint256",
          "name": "reservationId",
          "type": "uint256"
        },
        {
          "indexed": true,
          "internalType": "address",
          "name": "account",
          "type": "address"
        },
        {
          "indexed": true,
          "internalType": "address",
          "name": "token",
          "type": "address"
        },
        {
          "indexed": false,
          "internalType": "uint256",
          "name": "amount",
          "type": "uint256"
        },
        {
          "indexed": false,
          "internalType": "uint256",
          "name": "timestamp",
          "type": "uint256"
        }
      ],
      "name": "Capture",
      "type": "event"
    },
    {
      "anonymous": false,
      "inputs": [
        {
          "indexed": true,
          "internalType": "address",
          "name": "token",
          "type": "address"
        }
      ],
      "name": "NewSupportedToken",
      "type": "event"
    },
    {
      "anonymous": false,
      "inputs": [
        {
          "indexed": true,
          "internalType": "address",
          "name": "previousOwner",
          "type": "address"
        },
        {
          "indexed": true,
          "internalType": "address",
          "name": "newOwner",
          "type": "address"
        }
      ],
      "name": "OwnershipTransferred",
      "type": "event"
    },
    {
      "anonymous": false,
      "inputs": [
        {
          "indexed": true,
          "internalType": "address",
          "name": "token",
          "type": "address"
        }
      ],
      "name": "RemovedSupportedToken",
      "type": "event"
    },
    {
      "anonymous": false,
      "inputs": [
        {
          "indexed": true,
          "internalType": "uint256",
          "name": "reservationId",
          "type": "uint256"
        },
        {
          "indexed": true,
          "internalType": "address",
          "name": "account",
          "type": "address"
        },
        {
          "indexed": true,
          "internalType": "address",
          "name": "token",
          "type": "address"
        },
        {
          "indexed": false,
          "internalType": "uint256",
          "name": "amount",
          "type": "uint256"
        },
        {
          "indexed": false,
          "internalType": "uint256",
          "name": "updatedAt",
          "type": "uint256"
        }
      ],
      "name": "ReservationIncreased",
      "type": "event"
    },
    {
      "anonymous": false,
      "inputs": [
        {
          "indexed": true,
          "internalType": "uint256",
          "name": "reservationId",
          "type": "uint256"
        },
        {
          "indexed": true,
          "internalType": "address",
          "name": "account",
          "type": "address"
        },
        {
          "indexed": true,
          "internalType": "address",
          "name": "token",
          "type": "address"
        },
        {
          "indexed": false,
          "internalType": "uint256",
          "name": "amount",
          "type": "uint256"
        },
        {
          "indexed": false,
          "internalType": "uint256",
          "name": "updatedAt",
          "type": "uint256"
        }
      ],
      "name": "ReservationReduced",
      "type": "event"
    },
    {
      "anonymous": false,
      "inputs": [
        {
          "indexed": true,
          "internalType": "uint256",
          "name": "reservationId",
          "type": "uint256"
        },
        {
          "indexed": false,
          "internalType": "enum FiatPayment.ReservationStatus",
          "name": "status",
          "type": "uint8"
        },
        {
          "indexed": false,
          "internalType": "uint256",
          "name": "updatedAt",
          "type": "uint256"
        }
      ],
      "name": "ReservationStatusUpdated",
      "type": "event"
    },
    {
      "anonymous": false,
      "inputs": [
        {
          "indexed": true,
          "internalType": "uint256",
          "name": "reservationId",
          "type": "uint256"
        },
        {
          "indexed": true,
          "internalType": "address",
          "name": "account",
          "type": "address"
        },
        {
          "indexed": true,
          "internalType": "address",
          "name": "token",
          "type": "address"
        },
        {
          "indexed": false,
          "internalType": "uint256",
          "name": "amount",
          "type": "uint256"
        },
        {
          "indexed": false,
          "internalType": "uint256",
          "name": "createdAt",
          "type": "uint256"
        }
      ],
      "name": "Reserved",
      "type": "event"
    },
    {
      "anonymous": false,
      "inputs": [
        {
          "indexed": true,
          "internalType": "uint256",
          "name": "reservationId",
          "type": "uint256"
        },
        {
          "indexed": true,
          "internalType": "address",
          "name": "account",
          "type": "address"
        },
        {
          "indexed": true,
          "internalType": "address",
          "name": "token",
          "type": "address"
        },
        {
          "indexed": false,
          "internalType": "uint256",
          "name": "amount",
          "type": "uint256"
        },
        {
          "indexed": false,
          "internalType": "uint256",
          "name": "timestamp",
          "type": "uint256"
        }
      ],
      "name": "Reversal",
      "type": "event"
    },
    {
      "inputs": [
        {
          "internalType": "address",
          "name": "_token",
          "type": "address"
        }
      ],
      "name": "addSupportedToken",
      "outputs": [],
      "stateMutability": "nonpayable",
      "type": "function"
    },
    {
      "inputs": [
        {
          "internalType": "uint256[]",
          "name": "_reservationIds",
          "type": "uint256[]"
        }
      ],
      "name": "batchCapture",
      "outputs": [],
      "stateMutability": "nonpayable",
      "type": "function"
    },
    {
      "inputs": [
        {
          "internalType": "uint256[]",
          "name": "_reservationIds",
          "type": "uint256[]"
        },
        {
          "internalType": "uint256",
          "name": "_status",
          "type": "uint256"
        }
      ],
      "name": "batchUpdateReservationStatuses",
      "outputs": [],
      "stateMutability": "nonpayable",
      "type": "function"
    },
    {
      "inputs": [
        {
          "internalType": "uint256",
          "name": "_reservationId",
          "type": "uint256"
        }
      ],
      "name": "captureReservation",
      "outputs": [],
      "stateMutability": "nonpayable",
      "type": "function"
    },
    {
      "inputs": [],
      "name": "getNextReservationId",
      "outputs": [
        {
          "internalType": "uint256",
          "name": "",
          "type": "uint256"
        }
      ],
      "stateMutability": "view",
      "type": "function"
    },
    {
      "inputs": [
        {
          "internalType": "uint256",
          "name": "_reservationId",
          "type": "uint256"
        }
      ],
      "name": "getReservationById",
      "outputs": [
        {
          "components": [
            {
              "internalType": "uint256",
              "name": "reservationId",
              "type": "uint256"
            },
            {
              "internalType": "address",
              "name": "account",
              "type": "address"
            },
            {
              "internalType": "address",
              "name": "token",
              "type": "address"
            },
            {
              "internalType": "uint256",
              "name": "amount",
              "type": "uint256"
            },
            {
              "internalType": "uint256[]",
              "name": "splitAmounts",
              "type": "uint256[]"
            },
            {
              "internalType": "address[]",
              "name": "splitAddresses",
              "type": "address[]"
            },
            {
              "internalType": "enum FiatPayment.ReservationStatus",
              "name": "status",
              "type": "uint8"
            },
            {
              "internalType": "uint256",
              "name": "createdAt",
              "type": "uint256"
            },
            {
              "internalType": "uint256",
              "name": "updatedAt",
              "type": "uint256"
            }
          ],
          "internalType": "struct FiatPayment.Reservation",
          "name": "",
          "type": "tuple"
        }
      ],
      "stateMutability": "view",
      "type": "function"
    },
    {
      "inputs": [
        {
          "internalType": "address",
          "name": "_account",
          "type": "address"
        }
      ],
      "name": "getReservations",
      "outputs": [
        {
          "internalType": "uint256[]",
          "name": "",
          "type": "uint256[]"
        }
      ],
      "stateMutability": "view",
      "type": "function"
    },
    {
      "inputs": [
        {
          "internalType": "address",
          "name": "_account",
          "type": "address"
        }
      ],
      "name": "isInitialized",
      "outputs": [
        {
          "internalType": "bool",
          "name": "",
          "type": "bool"
        }
      ],
      "stateMutability": "view",
      "type": "function"
    },
    {
      "inputs": [
        {
          "internalType": "uint256",
          "name": "_typeId",
          "type": "uint256"
        }
      ],
      "name": "isModuleType",
      "outputs": [
        {
          "internalType": "bool",
          "name": "",
          "type": "bool"
        }
      ],
      "stateMutability": "pure",
      "type": "function"
    },
    {
      "inputs": [
        {
          "internalType": "address",
          "name": "",
          "type": "address"
        }
      ],
      "name": "limits",
      "outputs": [
        {
          "internalType": "contract SpendLimit",
          "name": "",
          "type": "address"
        }
      ],
      "stateMutability": "view",
      "type": "function"
    },
    {
      "inputs": [],
      "name": "name",
      "outputs": [
        {
          "internalType": "string",
          "name": "",
          "type": "string"
        }
      ],
      "stateMutability": "pure",
      "type": "function"
    },
    {
      "inputs": [
        {
          "internalType": "bytes",
          "name": "_data",
          "type": "bytes"
        }
      ],
      "name": "onInstall",
      "outputs": [],
      "stateMutability": "nonpayable",
      "type": "function"
    },
    {
      "inputs": [
        {
          "internalType": "bytes",
          "name": "",
          "type": "bytes"
        }
      ],
      "name": "onUninstall",
      "outputs": [],
      "stateMutability": "nonpayable",
      "type": "function"
    },
    {
      "inputs": [],
      "name": "owner",
      "outputs": [
        {
          "internalType": "address",
          "name": "",
          "type": "address"
        }
      ],
      "stateMutability": "view",
      "type": "function"
    },
    {
      "inputs": [
        {
          "internalType": "uint256",
          "name": "_reservationId",
          "type": "uint256"
        },
        {
          "internalType": "uint256[]",
          "name": "_splitAmounts",
          "type": "uint256[]"
        }
      ],
      "name": "reduceReservation",
      "outputs": [],
      "stateMutability": "nonpayable",
      "type": "function"
    },
    {
      "inputs": [
        {
          "internalType": "address",
          "name": "_token",
          "type": "address"
        }
      ],
      "name": "removeSupportedToken",
      "outputs": [],
      "stateMutability": "nonpayable",
      "type": "function"
    },
    {
      "inputs": [],
      "name": "renounceOwnership",
      "outputs": [],
      "stateMutability": "nonpayable",
      "type": "function"
    },
    {
      "inputs": [
        {
          "internalType": "uint256",
          "name": "",
          "type": "uint256"
        }
      ],
      "name": "reservationById",
      "outputs": [
        {
          "internalType": "uint256",
          "name": "reservationId",
          "type": "uint256"
        },
        {
          "internalType": "address",
          "name": "account",
          "type": "address"
        },
        {
          "internalType": "address",
          "name": "token",
          "type": "address"
        },
        {
          "internalType": "uint256",
          "name": "amount",
          "type": "uint256"
        },
        {
          "internalType": "enum FiatPayment.ReservationStatus",
          "name": "status",
          "type": "uint8"
        },
        {
          "internalType": "uint256",
          "name": "createdAt",
          "type": "uint256"
        },
        {
          "internalType": "uint256",
          "name": "updatedAt",
          "type": "uint256"
        }
      ],
      "stateMutability": "view",
      "type": "function"
    },
    {
      "inputs": [
        {
          "internalType": "address",
          "name": "",
          "type": "address"
        },
        {
          "internalType": "uint256",
          "name": "",
          "type": "uint256"
        }
      ],
      "name": "reservations",
      "outputs": [
        {
          "internalType": "uint256",
          "name": "",
          "type": "uint256"
        }
      ],
      "stateMutability": "view",
      "type": "function"
    },
    {
      "inputs": [
        {
          "internalType": "address",
          "name": "_token",
          "type": "address"
        },
        {
          "internalType": "uint256[]",
          "name": "_splitAmounts",
          "type": "uint256[]"
        },
        {
          "internalType": "address[]",
          "name": "_splitAddresses",
          "type": "address[]"
        }
      ],
      "name": "reserve",
      "outputs": [],
      "stateMutability": "nonpayable",
      "type": "function"
    },
    {
      "inputs": [
        {
          "internalType": "uint256",
          "name": "_reservationId",
          "type": "uint256"
        }
      ],
      "name": "revertReservation",
      "outputs": [],
      "stateMutability": "nonpayable",
      "type": "function"
    },
    {
      "inputs": [
        {
          "internalType": "contract IERC20",
          "name": "",
          "type": "address"
        }
      ],
      "name": "supportedTokens",
      "outputs": [
        {
          "internalType": "bool",
          "name": "",
          "type": "bool"
        }
      ],
      "stateMutability": "view",
      "type": "function"
    },
    {
      "inputs": [
        {
          "internalType": "address",
          "name": "newOwner",
          "type": "address"
        }
      ],
      "name": "transferOwnership",
      "outputs": [],
      "stateMutability": "nonpayable",
      "type": "function"
    },
    {
      "inputs": [
        {
          "internalType": "uint256",
          "name": "_reservationId",
          "type": "uint256"
        },
        {
          "internalType": "uint256[]",
          "name": "_splitAmounts",
          "type": "uint256[]"
        }
      ],
      "name": "updateReservation",
      "outputs": [],
      "stateMutability": "nonpayable",
      "type": "function"
    },
    {
      "inputs": [],
      "name": "version",
      "outputs": [
        {
          "internalType": "string",
          "name": "",
          "type": "string"
        }
      ],
      "stateMutability": "pure",
      "type": "function"
    }
  ],
  "bytecode": "0x60806040523480156200001157600080fd5b5060405162003c5038038062003c50833981016040819052620000349162000239565b816001600160a01b0381166200006457604051631e4fbdf760e01b81526000600482015260240160405180910390fd5b6200006f81620001b6565b508051600003620000965760405160016283e66160e01b0319815260040160405180910390fd5b60005b8151811015620001a85760006001600160a01b0316828281518110620000c357620000c362000322565b60200260200101516001600160a01b031603620000f35760405163d92e233d60e01b815260040160405180910390fd5b6001600360008484815181106200010e576200010e62000322565b60200260200101516001600160a01b03166001600160a01b0316815260200190815260200160002060006101000a81548160ff02191690831515021790555081818151811062000162576200016262000322565b60200260200101516001600160a01b03167f674133fffafa5256a29e9cc4c4035ada22ef8ece1fbae89d9b2cf2709c3bdcd760405160405180910390a260010162000099565b505060016007555062000338565b600080546001600160a01b038381166001600160a01b0319831681178455604051919092169283917f8be0079c531659141344cd1fd0a4f28419497f9722a3daafe3b4186f6b6457e09190a35050565b80516001600160a01b03811681146200021e57600080fd5b919050565b634e487b7160e01b600052604160045260246000fd5b600080604083850312156200024d57600080fd5b620002588362000206565b602084810151919350906001600160401b03808211156200027857600080fd5b818601915086601f8301126200028d57600080fd5b815181811115620002a257620002a262000223565b8060051b604051601f19603f83011681018181108582111715620002ca57620002ca62000223565b604052918252848201925083810185019189831115620002e957600080fd5b938501935b828510156200031257620003028562000206565b84529385019392850192620002ee565b8096505050505050509250929050565b634e487b7160e01b600052603260045260246000fd5b61390880620003486000396000f3fe60806040523480156200001157600080fd5b5060043610620001c55760003560e01c8063763191901162000101578063a84d0f0311620000a3578063d60b347f116200007a578063d60b347f146200045e578063dd4446c91462000475578063ecd0596114620004e8578063f2fde38b14620004ff57600080fd5b8063a84d0f031462000427578063b3c60294146200043e578063c34a88de146200045557600080fd5b80638ebe091011620000d85780638ebe091014620003d35780639fc7005d14620003ea578063a4cd2e08146200041057600080fd5b80637631919014620003935780638a91b0e314620003aa5780638da5cb5b14620003c157600080fd5b80632c852d0a116200016b5780636d61fe7011620001425780636d61fe70146200035b5780636d69fcaf1462000372578063715018a6146200038957600080fd5b80632c852d0a14620002d357806354fd4d5014620002ea57806368c4ac26146200032457600080fd5b8063132a98c011620001a0578063132a98c0146200025157806320d7bec114620002775780632699b10114620002bc57600080fd5b80630118895c14620001ca57806306fdde0314620001f45780630e9f3c991462000238575b600080fd5b620001e1620001db3660046200260e565b62000516565b6040519081526020015b60405180910390f35b60408051808201909152600b81527f466961745061796d656e7400000000000000000000000000000000000000000060208201525b604051620001eb919062002691565b6200024f62000249366004620026a6565b62000548565b005b6200026862000262366004620026c0565b6200075d565b604051620001eb9190620026e0565b620002a362000288366004620026c0565b6006602052600090815260409020546001600160a01b031681565b6040516001600160a01b039091168152602001620001eb565b6200024f620002cd3660046200287f565b620007f3565b6200024f620002e43660046200294d565b62000d58565b60408051808201909152600581527f302e302e31000000000000000000000000000000000000000000000000000000602082015262000229565b6200034a62000335366004620026c0565b60036020526000908152604090205460ff1681565b6040519015158152602001620001eb565b6200024f6200036c36600462002993565b62000f91565b6200024f62000383366004620026c0565b6200117f565b6200024f620011fd565b6200024f620003a4366004620026c0565b62001215565b6200024f620003bb36600462002993565b620012b2565b6000546001600160a01b0316620002a3565b6200024f620003e4366004620026a6565b620012dd565b62000401620003fb366004620026a6565b620014a8565b604051620001eb919062002abd565b6200024f6200042136600462002b7a565b6200169b565b6200024f6200043836600462002bca565b62001875565b6200024f6200044f36600462002bca565b62001d4a565b600754620001e1565b6200034a6200046f366004620026c0565b620020f5565b620004d362000486366004620026a6565b600560205260009081526040902080546001820154600283015460038401546006850154600786015460089096015494956001600160a01b03948516959490931693919260ff9091169187565b604051620001eb979695949392919062002c15565b6200034a620004f9366004620026a6565b60021490565b6200024f62000510366004620026c0565b6200210a565b600460205281600052604060002081815481106200053357600080fd5b90600052602060002001600091509150505481565b6200055262002167565b60006200055f82620014a8565b905060028160c0015160028111156200057c576200057c62002a84565b14620005b4576040517f1666d98d00000000000000000000000000000000000000000000000000000000815260040160405180910390fd5b6020818101516001600160a01b03908116600090815260069092526040918290205482840151606085015160e08601519451630144a1cf60e31b815291841660048301526024820152604481019390935216908190630a250e7890606401600060405180830381600087803b1580156200062d57600080fd5b505af115801562000642573d6000803e3d6000fd5b50505060408084015160208501516060860151925163a9059cbb60e01b81526001600160a01b039182166004820152602481019390935260009350169063a9059cbb906044016020604051808303816000875af1158015620006a8573d6000803e3d6000fd5b505050506040513d601f19601f82011682018060405250810190620006ce919062002c5e565b905080620006ef57604051633c9fd93960e21b815260040160405180910390fd5b82604001516001600160a01b031683602001516001600160a01b031684600001517fed297062cd6630959d82700d8b061b6ec8a3100763a28fe134898001bd694e0f8660600151426040516200074f929190918252602082015260400190565b60405180910390a450505050565b60606001600160a01b038216620007875760405163d92e233d60e01b815260040160405180910390fd5b6001600160a01b03821660009081526004602090815260409182902080548351818402810184019094528084529091830182828015620007e757602002820191906000526020600020905b815481526020019060010190808311620007d2575b50505050509050919050565b62000800600133620021af565b6200081e57604051631a27eac360e11b815260040160405180910390fd5b81516000036200085a576040517fff7c199f00000000000000000000000000000000000000000000000000000000815260040160405180910390fd5b80518251146200087d5760405163512509d360e11b815260040160405180910390fd5b6200088881620021d4565b620008bf576040517f5c1a646100000000000000000000000000000000000000000000000000000000815260040160405180910390fd5b826000620008cd8462002230565b6001600160a01b03831660009081526003602052604081205491925060ff909116151590036200092057604051635f8b555b60e11b81526001600160a01b03861660048201526024015b60405180910390fd5b806000036200094257604051631f2a200560e01b815260040160405180910390fd5b336000908152600660205260409081902054905163e9dc303960e01b81526001600160a01b0387811660048301526024820184905290911690819063e9dc303990604401600060405180830381600087803b158015620009a157600080fd5b505af1158015620009b6573d6000803e3d6000fd5b50506040516370a0823160e01b81523360048201528492506001600160a01b03861691506370a0823190602401602060405180830381865afa15801562000a01573d6000803e3d6000fd5b505050506040513d601f19601f8201168201806040525081019062000a27919062002c82565b101562000a4757604051631e9acf1760e31b815260040160405180910390fd5b60006040518061012001604052806007548152602001336001600160a01b03168152602001886001600160a01b031681526020018481526020018781526020018681526020016000600281111562000aa35762000aa362002a84565b815242602080830182905260409283019190915233600090815260048083528382206007805482546001808201855593865286862001555483526005845291849020855181558584015192810180546001600160a01b03199081166001600160a01b03958616179091559486015160028201805490961693169290921790935560608401516003820155608084015180519495508594919362000b4d93908501929101906200252b565b5060a0820151805162000b6b9160058401916020909101906200257b565b5060c082015160068201805460ff1916600183600281111562000b925762000b9262002a84565b021790555060e082015160078083019190915561010090920151600890910155805490600062000bc28362002cb2565b9091555050604080516060808201835260008083526020808401829052928401829052835191820184526001600160a01b03881682528183015282513060248201526044808201889052845180830390910181526064909101845291820180517bffffffffffffffffffffffffffffffffffffffffffffffffffffffff1663a9059cbb60e01b179052918201523363d691c96462000c5f62002274565b62000c7884600001518560200151866040015162002289565b6040518363ffffffff1660e01b815260040162000c9792919062002cce565b6000604051808303816000875af115801562000cb7573d6000803e3d6000fd5b505050506040513d6000823e601f3d908101601f1916820160405262000ce1919081019062002cf1565b5081604001516001600160a01b031682602001516001600160a01b031683600001517f7f819839d59944fb322d09a5c192b721bf5747cfd6a1905ab3209a1825243f9885606001518660e0015160405162000d46929190918252602082015260400190565b60405180910390a45050505050505050565b62000d6262002167565b600081900362000d9e576040517fff7c199f00000000000000000000000000000000000000000000000000000000815260040160405180910390fd5b60005b8181101562000f8c57600062000dd284848481811062000dc55762000dc562002e09565b90506020020135620014a8565b905060018160c00151600281111562000def5762000def62002a84565b1462000e0e576040516307d9844960e01b815260040160405180910390fd5b60005b8160a001515181101562000f1957600082604001516001600160a01b031663a9059cbb8460a00151848151811062000e4d5762000e4d62002e09565b60200260200101518560800151858151811062000e6e5762000e6e62002e09565b60200260200101516040518363ffffffff1660e01b815260040162000ea89291906001600160a01b03929092168252602082015260400190565b6020604051808303816000875af115801562000ec8573d6000803e3d6000fd5b505050506040513d601f19601f8201168201806040525081019062000eee919062002c5e565b90508062000f0f57604051633c9fd93960e21b815260040160405180910390fd5b5060010162000e11565b5080604001516001600160a01b031681602001516001600160a01b031682600001517ffa76f1c9f047bf3263a9352e61a33f3b1458d3c853e1b304ec0125b23bf788a784606001514260405162000f7a929190918252602082015260400190565b60405180910390a45060010162000da1565b505050565b60003060405162000fa290620025d3565b6001600160a01b039091168152602001604051809103906000f08015801562000fcf573d6000803e3d6000fd5b5090506000808062000fe48587018762002e1f565b9250925092508151835114158062000ffe57508051835114155b1562001036576040517f35be3ac800000000000000000000000000000000000000000000000000000000815260040160405180910390fd5b60005b83518110156200113f57846001600160a01b0316630c89a1ba85838151811062001067576200106762002e09565b602002602001015185848151811062001084576200108462002e09565b6020026020010151858581518110620010a157620010a162002e09565b60209081029190910101516040517fffffffff0000000000000000000000000000000000000000000000000000000060e086901b1681526001600160a01b03909316600484015260248301919091526044820152426064820152608401600060405180830381600087803b1580156200111957600080fd5b505af11580156200112e573d6000803e3d6000fd5b505060019092019150620010399050565b5033600081815260066020526040902080546001600160a01b0319166001600160a01b0387161790556200117690600190620022ba565b50505050505050565b6200118962002167565b6001600160a01b038116620011b15760405163d92e233d60e01b815260040160405180910390fd5b6001600160a01b038116600081815260036020526040808220805460ff19166001179055517f674133fffafa5256a29e9cc4c4035ada22ef8ece1fbae89d9b2cf2709c3bdcd79190a250565b6200120762002167565b620012136000620022d1565b565b6200121f62002167565b6001600160a01b03811660009081526003602052604081205460ff16151590036200126957604051635f8b555b60e11b81526001600160a01b038216600482015260240162000917565b6001600160a01b038116600081815260036020526040808220805460ff19169055517f8acbc8326a37478819015a1cb4a2c1bae94f77521707fcd2cfd3a16cc1a1ccab9190a250565b33600081815260066020526040902080546001600160a01b031916905562000f8c9060019062002321565b620012e762002167565b6000620012f482620014a8565b905060018160c00151600281111562001311576200131162002a84565b1462001330576040516307d9844960e01b815260040160405180910390fd5b60005b8160a00151518110156200143b57600082604001516001600160a01b031663a9059cbb8460a0015184815181106200136f576200136f62002e09565b60200260200101518560800151858151811062001390576200139062002e09565b60200260200101516040518363ffffffff1660e01b8152600401620013ca9291906001600160a01b03929092168252602082015260400190565b6020604051808303816000875af1158015620013ea573d6000803e3d6000fd5b505050506040513d601f19601f8201168201806040525081019062001410919062002c5e565b9050806200143157604051633c9fd93960e21b815260040160405180910390fd5b5060010162001333565b5080604001516001600160a01b031681602001516001600160a01b031682600001517ffa76f1c9f047bf3263a9352e61a33f3b1458d3c853e1b304ec0125b23bf788a78460600151426040516200149c929190918252602082015260400190565b60405180910390a45050565b620014f7604080516101208101825260008082526020820181905291810182905260608082018390526080820181905260a08201529060c0820190815260200160008152602001600081525090565b600082815260056020526040812054900362001543576040517f26ccf8500000000000000000000000000000000000000000000000000000000081526004810183905260240162000917565b6000828152600560209081526040918290208251610120810184528154815260018201546001600160a01b039081168285015260028301541681850152600382015460608201526004820180548551818602810186019096528086529194929360808601939290830182828015620015db57602002820191906000526020600020905b815481526020019060010190808311620015c6575b50505050508152602001600582018054806020026020016040519081016040528092919081815260200182805480156200163f57602002820191906000526020600020905b81546001600160a01b0316815260019091019060200180831162001620575b5050509183525050600682015460209091019060ff16600281111562001669576200166962002a84565b60028111156200167d576200167d62002a84565b81526007820154602082015260089091015460409091015292915050565b620016a562002167565b6000829003620016e1576040517fff7c199f00000000000000000000000000000000000000000000000000000000815260040160405180910390fd5b60018114158015620016f4575060028114155b1562001730576040517f32c3fb260000000000000000000000000000000000000000000000000000000081526004810182905260240162000917565b60005b828110156200186f5760006005600086868581811062001757576200175762002e09565b90506020020135815260200190815260200160002090506000600281111562001784576200178462002a84565b600682015460ff166002811115620017a057620017a062002a84565b14620017bf576040516302cfad4160e31b815260040160405180910390fd5b826002811115620017d457620017d462002a84565b60068201805460ff19166001836002811115620017f557620017f562002a84565b02179055508484838181106200180f576200180f62002e09565b905060200201357f728bedb66ca8735b30b60b62cc08ac5b0f812d7e70226e92d9de697b5aa176a78460028111156200184c576200184c62002a84565b426040516200185d92919062002ea7565b60405180910390a25060010162001733565b50505050565b62001882600133620021af565b620018a057604051631a27eac360e11b815260040160405180910390fd5b6000620018ad83620014a8565b60608101519091506000620018c28462002230565b90508260a0015151845114620018eb5760405163512509d360e11b815260040160405180910390fd5b806000036200190d57604051631f2a200560e01b815260040160405180910390fd5b8082036200192e5760405163b85d07e360e01b815260040160405180910390fd5b8082111562001969576040517faeb5f34900000000000000000000000000000000000000000000000000000000815260040160405180910390fd5b60008360c00151600281111562001984576200198462002a84565b14620019a3576040516302cfad4160e31b815260040160405180910390fd5b60408301516000620019b6848462002ec4565b33600090815260066020526040908190205487820151915163e9dc303960e01b81526001600160a01b039283166004820152602481018490529293501690819063e9dc303990604401600060405180830381600087803b15801562001a1a57600080fd5b505af115801562001a2f573d6000803e3d6000fd5b50506040516370a0823160e01b81523360048201528492506001600160a01b03861691506370a0823190602401602060405180830381865afa15801562001a7a573d6000803e3d6000fd5b505050506040513d601f19601f8201168201806040525081019062001aa0919062002c82565b101562001ac057604051631e9acf1760e31b815260040160405180910390fd5b818660600181815162001ad4919062002eda565b905250608086018781524261010088015260008981526005602090815260409182902089518155818a01516001820180546001600160a01b03199081166001600160a01b0393841617909155938b01516002830180549095169116179092556060890151600383015591518051899362001b569260048501929101906200252b565b5060a0820151805162001b749160058401916020909101906200257b565b5060c082015160068201805460ff1916600183600281111562001b9b5762001b9b62002a84565b021790555060e0820151600782015561010090910151600890910155604080516060808201835260008083526020808401829052928401829052835191820184526001600160a01b03871682528183015282513060248201526044808201879052845180830390910181526064909101845291820180517bffffffffffffffffffffffffffffffffffffffffffffffffffffffff1663a9059cbb60e01b179052918201523363d691c96462001c4f62002274565b62001c6884600001518560200151866040015162002289565b6040518363ffffffff1660e01b815260040162001c8792919062002cce565b6000604051808303816000875af115801562001ca7573d6000803e3d6000fd5b505050506040513d6000823e601f3d908101601f1916820160405262001cd1919081019062002cf1565b5086604001516001600160a01b031687602001516001600160a01b031688600001517f4840b9db427648cf78eb14e24cf03ec9cff057e7b2312d563acd4fc65de243888a606001518b610100015160405162001d37929190918252602082015260400190565b60405180910390a4505050505050505050565b62001d5462002167565b600062001d6183620014a8565b6060810151909150600062001d768462002230565b90508260a001515184511462001d9f5760405163512509d360e11b815260040160405180910390fd5b8060000362001dc157604051631f2a200560e01b815260040160405180910390fd5b80820362001de25760405163b85d07e360e01b815260040160405180910390fd5b8082101562001e1d576040517fb5a9bf9500000000000000000000000000000000000000000000000000000000815260040160405180910390fd5b60008360c00151600281111562001e385762001e3862002a84565b1462001e57576040516302cfad4160e31b815260040160405180910390fd5b6040830151600062001e6a838562002ec4565b6020868101516001600160a01b0390811660009081526006909252604080832054818a015160e08b01518351630144a1cf60e31b815291851660048301526024820187905260448201529151949550909116928392630a250e78926064808201939182900301818387803b15801562001ee257600080fd5b505af115801562001ef7573d6000803e3d6000fd5b5050505081866060015162001f0d919062002ec4565b60608701908152608087018881524261010089015260008a8152600560209081526040918290208a518155818b01516001820180546001600160a01b03199081166001600160a01b0393841617909155938c01516002830180549095169116179092559251600382015590518051899362001f909260048501929101906200252b565b5060a0820151805162001fae9160058401916020909101906200257b565b5060c082015160068201805460ff1916600183600281111562001fd55762001fd562002a84565b021790555060e0820151600782015561010090910151600890910155602086015160405163a9059cbb60e01b81526001600160a01b0391821660048201526024810184905260009185169063a9059cbb906044016020604051808303816000875af115801562002049573d6000803e3d6000fd5b505050506040513d601f19601f820116820180604052508101906200206f919062002c5e565b9050806200209057604051633c9fd93960e21b815260040160405180910390fd5b86604001516001600160a01b031687602001516001600160a01b031688600001517fab127e1bc378a8a09c0f37e743888e8524c067d70237a356f938ecd218c529bf8a606001518b610100015160405162001d37929190918252602082015260400190565b600062002104600183620021af565b92915050565b6200211462002167565b6001600160a01b03811662002159576040517f1e4fbdf70000000000000000000000000000000000000000000000000000000081526000600482015260240162000917565b6200216481620022d1565b50565b6000546001600160a01b0316331462001213576040517f118cdaa700000000000000000000000000000000000000000000000000000000815233600482015260240162000917565b6001600160a01b038116600090815260018301602052604081205415155b9392505050565b60006001815b8351811015620022295760006001600160a01b031684828151811062002204576200220462002e09565b60200260200101516001600160a01b0316036200222057600091505b600101620021da565b5092915050565b600080805b8351811015620022295783818151811062002254576200225462002e09565b60200260200101518262002269919062002eda565b915060010162002235565b6000620022848180808062002338565b905090565b6060838383604051602001620022a29392919062002ef0565b60405160208183030381529060405290509392505050565b6000620021cd836001600160a01b038416620023d5565b600080546001600160a01b038381166001600160a01b0319831681178455604051919092169283917f8be0079c531659141344cd1fd0a4f28419497f9722a3daafe3b4186f6b6457e09190a35050565b6000620021cd836001600160a01b03841662002427565b604080517fff000000000000000000000000000000000000000000000000000000000000008087166020830152851660218201526000602282018190527fffffffff000000000000000000000000000000000000000000000000000000008516602683015269ffffffffffffffffffff198416602a8301529101604051602081830303815290604052620023cc9062002f31565b95945050505050565b60008181526001830160205260408120546200241e5750815460018181018455600084815260208082209093018490558454848252828601909352604090209190915562002104565b50600062002104565b60008181526001830160205260408120548015620025205760006200244e60018362002ec4565b8554909150600090620024649060019062002ec4565b9050808214620024d057600086600001828154811062002488576200248862002e09565b9060005260206000200154905080876000018481548110620024ae57620024ae62002e09565b6000918252602080832090910192909255918252600188019052604090208390555b8554869080620024e457620024e462002f59565b60019003818190600052602060002001600090559055856001016000868152602001908152602001600020600090556001935050505062002104565b600091505062002104565b82805482825590600052602060002090810192821562002569579160200282015b82811115620025695782518255916020019190600101906200254c565b5062002577929150620025e1565b5090565b82805482825590600052602060002090810192821562002569579160200282015b828111156200256957825182546001600160a01b0319166001600160a01b039091161782556020909201916001909101906200259c565b6109638062002f7083390190565b5b80821115620025775760008155600101620025e2565b6001600160a01b03811681146200216457600080fd5b600080604083850312156200262257600080fd5b82356200262f81620025f8565b946020939093013593505050565b60005b838110156200265a57818101518382015260200162002640565b50506000910152565b600081518084526200267d8160208601602086016200263d565b601f01601f19169290920160200192915050565b602081526000620021cd602083018462002663565b600060208284031215620026b957600080fd5b5035919050565b600060208284031215620026d357600080fd5b8135620021cd81620025f8565b6020808252825182820181905260009190848201906040850190845b818110156200271a57835183529284019291840191600101620026fc565b50909695505050505050565b634e487b7160e01b600052604160045260246000fd5b604051601f8201601f1916810167ffffffffffffffff8111828210171562002768576200276862002726565b604052919050565b600067ffffffffffffffff8211156200278d576200278d62002726565b5060051b60200190565b600082601f830112620027a957600080fd5b81356020620027c2620027bc8362002770565b6200273c565b8083825260208201915060208460051b870101935086841115620027e557600080fd5b602086015b84811015620028035780358352918301918301620027ea565b509695505050505050565b600082601f8301126200282057600080fd5b8135602062002833620027bc8362002770565b8083825260208201915060208460051b8701019350868411156200285657600080fd5b602086015b84811015620028035780356200287181620025f8565b83529183019183016200285b565b6000806000606084860312156200289557600080fd5b8335620028a281620025f8565b9250602084013567ffffffffffffffff80821115620028c057600080fd5b620028ce8783880162002797565b93506040860135915080821115620028e557600080fd5b50620028f4868287016200280e565b9150509250925092565b60008083601f8401126200291157600080fd5b50813567ffffffffffffffff8111156200292a57600080fd5b6020830191508360208260051b85010111156200294657600080fd5b9250929050565b600080602083850312156200296157600080fd5b823567ffffffffffffffff8111156200297957600080fd5b6200298785828601620028fe565b90969095509350505050565b60008060208385031215620029a757600080fd5b823567ffffffffffffffff80821115620029c057600080fd5b818501915085601f830112620029d557600080fd5b813581811115620029e557600080fd5b866020828501011115620029f857600080fd5b60209290920196919550909350505050565b60008151808452602080850194506020840160005b8381101562002a3d5781518752958201959082019060010162002a1f565b509495945050505050565b60008151808452602080850194506020840160005b8381101562002a3d5781516001600160a01b03168752958201959082019060010162002a5d565b634e487b7160e01b600052602160045260246000fd5b6003811062002ab957634e487b7160e01b600052602160045260246000fd5b9052565b60208152815160208201526000602083015162002ae560408401826001600160a01b03169052565b5060408301516001600160a01b0381166060840152506060830151608083015260808301516101208060a085015262002b2361014085018362002a0a565b915060a0850151601f198584030160c086015262002b42838262002a48565b92505060c085015162002b5960e086018262002a9a565b5060e085015161010085810191909152909401519390920192909252919050565b60008060006040848603121562002b9057600080fd5b833567ffffffffffffffff81111562002ba857600080fd5b62002bb686828701620028fe565b909790965060209590950135949350505050565b6000806040838503121562002bde57600080fd5b82359150602083013567ffffffffffffffff81111562002bfd57600080fd5b62002c0b8582860162002797565b9150509250929050565b8781526001600160a01b038781166020830152861660408201526060810185905260e0810162002c49608083018662002a9a565b60a082019390935260c0015295945050505050565b60006020828403121562002c7157600080fd5b81518015158114620021cd57600080fd5b60006020828403121562002c9557600080fd5b5051919050565b634e487b7160e01b600052601160045260246000fd5b60006001820162002cc75762002cc762002c9c565b5060010190565b82815260406020820152600062002ce9604083018462002663565b949350505050565b6000602080838503121562002d0557600080fd5b825167ffffffffffffffff8082111562002d1e57600080fd5b8185019150601f86601f84011262002d3557600080fd5b825162002d46620027bc8262002770565b81815260059190911b8401850190858101908983111562002d6657600080fd5b8686015b8381101562002dfb5780518681111562002d845760008081fd5b8701603f81018c1362002d975760008081fd5b8881015160408882111562002db05762002db062002726565b62002dc3828901601f19168c016200273c565b8281528e8284860101111562002dd95760008081fd5b62002dea838d83018487016200263d565b865250505091870191870162002d6a565b509998505050505050505050565b634e487b7160e01b600052603260045260246000fd5b60008060006060848603121562002e3557600080fd5b833567ffffffffffffffff8082111562002e4e57600080fd5b62002e5c878388016200280e565b9450602086013591508082111562002e7357600080fd5b62002e818783880162002797565b9350604086013591508082111562002e9857600080fd5b50620028f48682870162002797565b6040810162002eb7828562002a9a565b8260208301529392505050565b8181038181111562002104576200210462002c9c565b8082018082111562002104576200210462002c9c565b6bffffffffffffffffffffffff198460601b1681528260148201526000825162002f228160348501602087016200263d565b91909101603401949350505050565b8051602080830151919081101562002f53576000198160200360031b1b821691505b50919050565b634e487b7160e01b600052603160045260246000fdfe608060405234801561001057600080fd5b5060405161096338038061096383398101604081905261002f916100be565b806001600160a01b03811661005e57604051631e4fbdf760e01b81526000600482015260240160405180910390fd5b6100678161006e565b50506100ee565b600080546001600160a01b038381166001600160a01b0319831681178455604051919092169283917f8be0079c531659141344cd1fd0a4f28419497f9722a3daafe3b4186f6b6457e09190a35050565b6000602082840312156100d057600080fd5b81516001600160a01b03811681146100e757600080fd5b9392505050565b610866806100fd6000396000f3fe608060405234801561001057600080fd5b50600436106100be5760003560e01c8063863e76db11610076578063a97c0a1e1161005b578063a97c0a1e146101a6578063e9dc3039146101b9578063f2fde38b146101cc57600080fd5b8063863e76db146101815780638da5cb5b1461018b57600080fd5b806320988cef116100a757806320988cef146100eb57806320d7bec114610108578063715018a61461017957600080fd5b80630a250e78146100c35780630c89a1ba146100d8575b600080fd5b6100d66100d136600461071d565b6101df565b005b6100d66100e6366004610750565b610261565b6100f562278d0081565b6040519081526020015b60405180910390f35b61014c610116366004610789565b60016020819052600091825260409091208054918101546002820154600383015460048401546005909401549293919290919086565b604080519687526020870195909552938501929092526060840152608083015260a082015260c0016100ff565b6100d6610370565b6100f56201518081565b6000546040516001600160a01b0390911681526020016100ff565b6100d66101b4366004610789565b610384565b6100d66101c73660046107ab565b61041b565b6100d66101da366004610789565b610542565b6101e761059e565b6001600160a01b03831660009081526001602052604090204261020d6201518082610804565b831061022d5783826002016000828254610227919061081d565b90915550505b61023a62278d0082610804565b831061025a5783826003016000828254610254919061081d565b90915550505b5050505050565b61026961059e565b821580610274575081155b156102ab576040517f1f2a200500000000000000000000000000000000000000000000000000000000815260040160405180910390fd5b6000806102b7866105e4565b156102df576102c9620151808461081d565b91506102d862278d008461081d565b90506102e5565b50819050805b6001600160a01b038616600090815260016020819052604090912086815590810185905560028101869055600381018590556004810183905560050181905560408051868152602081018690526001600160a01b038816917fadc4fae0466f081fbc29f2ce143e643cf8216cdb5e320362ce39b953a5eeb56d910160405180910390a2505050505050565b61037861059e565b6103826000610699565b565b61038c61059e565b610395816105e4565b6103b257604051637d5ba07f60e01b815260040160405180910390fd5b6001600160a01b03811660008181526001602081905260408083208381559182018390556002820183905560038201839055600482018390556005909101829055517fa32d140d786eac83e6e283111fb33b0663f37caf071c520ff9c093ff8af8825d9190a250565b61042361059e565b6001600160a01b03821660009081526001602052604090206004810154429081111561046357610456620151808261081d565b6004830155815460028301555b816005015481111561048c5761047c62278d008261081d565b6005830155600182015460038301555b82826002015410156104ca576040517f5602069400000000000000000000000000000000000000000000000000000000815260040160405180910390fd5b8282600301541015610508576040517fc370c67f00000000000000000000000000000000000000000000000000000000815260040160405180910390fd5b8282600201600082825461051c9190610804565b92505081905550828260030160008282546105379190610804565b909155505050505050565b61054a61059e565b6001600160a01b038116610592576040517f1e4fbdf7000000000000000000000000000000000000000000000000000000008152600060048201526024015b60405180910390fd5b61059b81610699565b50565b6000546001600160a01b03163314610382576040517f118cdaa7000000000000000000000000000000000000000000000000000000008152336004820152602401610589565b6001600160a01b0381166000908152600160208181526040808420815160c08101835281548082529482015493810193909352600281015491830182905260038101546060840152600481015460808401526005015460a083015290911415806106515750806080015142105b801561067257508060600151816020015114158061067257508060a0015142105b1561069057604051637d5ba07f60e01b815260040160405180910390fd5b50600192915050565b600080546001600160a01b038381167fffffffffffffffffffffffff0000000000000000000000000000000000000000831681178455604051919092169283917f8be0079c531659141344cd1fd0a4f28419497f9722a3daafe3b4186f6b6457e09190a35050565b80356001600160a01b038116811461071857600080fd5b919050565b60008060006060848603121561073257600080fd5b61073b84610701565b95602085013595506040909401359392505050565b6000806000806080858703121561076657600080fd5b61076f85610701565b966020860135965060408601359560600135945092505050565b60006020828403121561079b57600080fd5b6107a482610701565b9392505050565b600080604083850312156107be57600080fd5b6107c783610701565b946020939093013593505050565b7f4e487b7100000000000000000000000000000000000000000000000000000000600052601160045260246000fd5b81810381811115610817576108176107d5565b92915050565b80820180821115610817576108176107d556fea264697066735822122025af67821a840d407e874ee7f1a8c8463ff73110753648fea3d467ca366891dc64736f6c63430008180033a2646970667358221220e1ce28f9e39bf54e637279735b3fe8745bf4ac8c31a7dc8f1a58f2ef6d3c27d264736f6c63430008180033",
  "linkReferences": {},
  "deployedLinkReferences": {}
}